:100000000C9401090C9429090C9429090C942909D0
:100010000C9429090C9429090C9429090C94290998
:100020000C9429090C9429090C94D50C0C94670B99
:100030000C9429090C9429090C9429090C94290978
:100040000C9429090C94B71A0C9429090C942909C9
:100050000C9429090C9429090C9429090C94780D05
:100060000C9429090C9429090C9429090C94290948
:100070000C9429090C9429090C9429090C94290938
:100080000C946F1A0C9429090C9429090C942909D1
:100090000C9429090C9429090C9429090C94290918
:1000A0000C9429090C9429090C942909491E491E0C
:1000B000491E491E491E671E671E871E871EAA1EEF
:1000C000CB1EF11EFE1E661F691F581F5C1F621F9C
:1000D0008A1F8A1F8A1F6D1F711F751F7B1F7F1F3D
:1000E0008A1F851F12010002EF0201404123368062
:1000F000000101020301120100020000004041233F
:10010000368000010102030141726475696E6F203F
:100110004C4C430055534220494F20426F6172645A
:100120000004030904080B00020202010009040094
:100130000001020200000524001001052401010154
:10014000042402060524060001070581031000406F
:1001500009040100020A0000000705020240000035
:10016000070583024000004016FFC0EE944000F8EF
:1001700000802044D281F08800871044B1011088AB
:100180000085104E91011088008510000001108834
:10019000008513FF1FF11F87E08514009009000000
:1001A0001085143851C51F8E1085144451251089AF
:1001B0001085147C51251089108514005125108953
:1001C0001085147FD12510891085144011251089C0
:1001D00010871447D1C51F89108024445008818995
:1001E00010FFC43851F0FFF9F00004009100000046
:1001F000000003FF110000000000000011000000DB
:1002000000000000110000000000000011000000CC
:10021000000000001F00000000200D00044000004E
:100220000680000007100010872000884FC100449E
:100230003FF24023BFFC801FFFFF003FFFFFE0FFB6
:10024000FFFFB0FFFFFE6075AAA9C03FFFFF0008D7
:100250000100200D0001000000038000001EF000DE
:1002600000711C0001838300030EE1800E3D78E0E5
:100270000E3D78E0030EE1800183830000711C00D5
:10028000001EF00000038000200D000100000001AE
:100290000000000100000006C000001EF00007E1A1
:1002A0000FC0780FE03C07E10FC0001930000006D6
:1002B000C000000100000001000000010000200D4E
:1002C00000000000000100000001000000038000A9
:1002D0000006C0000039380001E38F000039380003
:1002E0000006C000000380000001000000010000C3
:1002F00000000000000203050608090B0C0E101197
:1003000013141617181A1B1D1E2021222425262718
:10031000292A2B2C2D2E2F303132333435363738D5
:1003200038393A3B3B3C3C3D3D3E3E3E3F3F3F4003
:10033000404040404040404040403F3F3F3E3E3EC6
:100340003D3D3C3C3B3B3A39383837363534333227
:1003500031302F2E2D2C2B2A29272625242221200F
:100360001E1D1B1A181716141311100E0C0B09085A
:100370000605030200FEFDFBFAF8F7F5F4F2F0EFD4
:10038000EDECEAE9E8E6E5E3E2E0DFDEDCDBDAD942
:10039000D7D6D5D4D3D2D1D0CFCECDCCCBCAC9C865
:1003A000C8C7C6C5C5C4C4C3C3C2C2C2C1C1C1C017
:1003B000C0C0C0C0C0C0C0C0C0C0C1C1C1C2C2C234
:1003C000C3C3C4C4C5C5C6C7C8C8C9CACBCCCDCEB3
:1003D000CFD0D1D2D3D4D5D6D7D9DADBDCDEDFE0AB
:1003E000E2E3E5E6E8E9EAECEDEFF0F2F4F5F7F840
:1003F000FAFBFDFEAED580A83FD300408D1420004F
:10040000A1C8DA1281CFD9F1DB40A4A6AF20002128
:10041000007F22000700000000003E5B4F5B3E3E75
:100420006B4F6B3E1C3E7C3E1C183C7E3C181C57A0
:100430007D571C1C5E7F5E1C00183C1800FFE7C344
:10044000E7FF0018241800FFE7DBE7FF30483A0613
:100450000E2629792926407F050507407F05253F7F
:100460005A3CE73C5A7F3E1C1C08081C1C3E7F146B
:10047000227F22145F5F005F5F06097F017F0066B5
:1004800089956A606060606094A2FFA29408047E0F
:10049000040810207E201008082A1C08081C2A08BE
:1004A000081E101010100C1E0C1E0C30383E383078
:1004B000060E3E0E06000000000000005F00000077
:1004C00007000700147F147F14242A7F2A122313A5
:1004D00008646236495620500008070300001C22B9
:1004E00041000041221C002A1C7F1C2A08083E08EB
:1004F00008008070300008080808080000606000EC
:1005000020100804023E5149453E00427F400072DF
:10051000494949462141494D331814127F10274556
:100520004545393C4A494931412111090736494974
:100530004936464949291E00001400000040340095
:100540000000081422411414141414004122140849
:1005500002015909063E415D594E7C1211127C7F01
:10056000494949363E414141227F4141413E7F490F
:100570004949417F090909013E414151737F0808FA
:10058000087F00417F41002040413F017F08142245
:10059000417F404040407F021C027F7F0408107F63
:1005A0003E4141413E7F090909063E4151215E7F9E
:1005B00009192946264949493203017F01033F4071
:1005C00040403F1F2040201F3F4038403F631408F9
:1005D000146303047804036159494D43007F41418A
:1005E000410204081020004141417F04020102043D
:1005F0004040404040000307080020545478407FAA
:10060000284444383844444428384444287F3854E3
:1006100054541800087E090218A4A49C787F08048A
:10062000047800447D40002040403D007F10284475
:100630000000417F40007C047804787C0804047842
:100640003844444438FC1824241818242418FC7C0A
:1006500008040408485454542404043F44243C40EF
:1006600040207C1C2040201C3C4030403C44281052
:1006700028444C9090907C4464544C44000836418B
:100680000000007700000041360800020102040269
:100690003C2623263C1EA1A161123A4040207A3814
:1006A0005454555921555579412154547841215577
:1006B00054784020545579400C1E527212395555C9
:1006C0005559395454545939555454580000457C9F
:1006D000410002457D420001457C40F0292429F07B
:1006E000F0282528F07C545545002054547C547C37
:1006F0000A097F4932494949323248484832324A28
:100700004848303A4141217A3A42402078009DA041
:10071000A07D39444444393D4040403D3C24FF24C1
:1007200024487E4943662B2FFC2F2BFF0929F620F6
:10073000C0887E090320545479410000447D413033
:1007400048484A32384040227A007A0A0A727D0DBF
:1007500019317D2629292F28262929292630484D77
:100760004020380808080808080808382F10C8ACC6
:10077000BA2F102834FA00007B000008142A142233
:1007800022142A14089500220095AA005500AAAA4E
:1007900055AA55AA000000FF00101010FF00141405
:1007A00014FF001010FF00FF1010F010F0141414CC
:1007B000FC001414F700FF0000FF00FF1414F40401
:1007C000FC141417101F10101F101F1414141F00F6
:1007D000101010F0000000001F101010101F10105B
:1007E0001010F010000000FF10101010101010106A
:1007F00010FF10000000FF140000FF00FF00001FAA
:1008000010170000FC04F414141710171414F40447
:10081000F40000FF00F714141414141414F700F774
:10082000141414171410101F101F141414F414109F
:1008300010F010F000001F101F0000001F14000037
:1008400000FC140000F010F01010FF10FF1414143E
:10085000FF141010101F00000000F010FFFFFFFF3A
:10086000FFF0F0F0F0F0FFFFFF0000000000FFFFDE
:100870000F0F0F0F0F38444438447C2A2A3E147E51
:1008800002020606027E027E026355494163384435
:10089000443C04407E201E2006027E020299A5E709
:1008A000A5991C2A492A1C4C7201724C304A4D4DA4
:1008B000303048784830BC625A463D3E494949008C
:1008C0007E0101017E2A2A2A2A2A44445F444440A8
:1008D000514A444040444A51400000FF0103E08037
:1008E000FF000008086B6B083612362436060F0925
:1008F0000F06000018180000001010003040FF0123
:1009000001001F01011E00191D1712003C3C3C3C58
:100910000000000000100011001200130015001666
:1009200000170018001A001C001D001F00210023E2
:10093000002500270029002C002E0031003400374C
:10094000003A003E004100450049004E0052005769
:10095000005C00620068006E0075007B0083008B05
:100960000093009C00A500AF00B900C400D000DCDB
:1009700000E900F70006011501260137014A015D73
:1009800001720188019F01B801D201EE010B022A18
:10099000024B026E029302BA02E40210033F03709C
:1009A00003A403DC03170455049704DD042705752D
:1009B00005C80520067D06E0064907B8072D08A9E9
:1009C000082D09B9094D0AEA0A900B400CFA0CC02F
:1009D0000D910E6F0F5A1053115B1272139A14D4AB
:1009E0001520178018F519801B231DDE1EB420A6C4
:1009F00022B524E4263429A72B402E0031EA330007
:100A000037453ABC3D68414C456B49C84D68524F2B
:100A100057805C006205359041005380005390413F
:100A20000053800053904100538000539041005385
:100A3000800053903E00538000539041005380004B
:100A400053904600538000539046005380005390CB
:100A5000460053800053904600538000539041005D
:100A60005380005390460053800053904A005380B7
:100A70000053904A0053800053904A005380005323
:100A8000904A005380005390460053800053904A90
:100A90000053800053904D0053800053904A005300
:100AA000800053904B0053800053904D00538000C2
:100AB00053904A0053800053904B00538000539052
:100AC0004D0053800053904D0053800053904D00D3
:100AD00053800053904D0053800053904D0053803D
:100AE0000053904D0053800053904D0053800053AD
:100AF000904D0053800053904D0053800053904D13
:100B00000053800053904D0053800053904D00538C
:100B1000800053904D05DB8001F3903A014D800039
:100B2000A6903A014D8000A6903A014D8000A69013
:100B30003A014D8000A6903A014D8000A6903A01FE
:100B40004D8000A6903A014D8000A6903A014D805C
:100B500000A69046005380005390410053800053FC
:100B6000904100538000539046014D80904A0053BD
:100B7000800053904D01F380904B014D80904A00CE
:100B80005380005390480053800053904A00538094
:100B90000053904B0053800053904A00A68000A65B
:100BA00090460053800053904801F3809041014DDE
:100BB0008000A6904800538000539041005380006D
:100BC00053904100538000539048014D80904A005B
:100BD00053800053904B0053800053904D0053803E
:100BE0000053904F0053800053904D014D80904B27
:100BF0000053800053904A0053800053904B0053A1
:100C0000800053904D005380005390520053800059
:100C100053904D0053800053904A005380005390EE
:100C200046029A80014D904A014D80904B00A6806B
:100C3000904D03E780904600A680904800A68090E3
:100C40004A00A680904B014D80904D00A680904FA9
:100C5000034180905200A6809051014D80904F003A
:100C6000A680904D034180904C00A680904B01F3EC
:100C700080904A01F380904800A680904600A680AC
:100C8000904500A680904300A680904500A68090E5
:100C90004300A6809041014D8000A6904100A680AF
:100CA000904300A680904500A680904600538000A7
:100CB0005390410053800053904100538000539063
:100CC00046014D80904A0053800053904D01F380BF
:100CD000904B014D80904A00538000539048005340
:100CE000800053904A0053800053904B0053800083
:100CF00053904A00A68000A690460053800053906F
:100D00004801F3809041014D8000A6904800538037
:100D10000053904100538000539041005380005392
:100D20009048014D80904A0053800053904B0053EF
:100D3000800053904D0053800053904F005380002B
:100D400053904D014D80904B0053800053904A00CA
:100D500053800053904B0053800053904D005380BC
:100D6000005390520053800053904D005380005325
:100D7000904A00538000539046029A80014D904A59
:100D8000014D80904B00A680904D03E78090460077
:100D9000A680904800A680904A00A680904B014D06
:100DA00080904D00A680904F034180905200A68015
:100DB0009051014D80904F00A680904D034180904E
:100DC0004C00A680904B01F380904A01F38090483C
:100DD00000A680029A904100A680904600A68090CE
:100DE0004100A680904300A680904500A6809046D2
:100DF00000A680904700A680904800538000F9909C
:100E00004D0053800053904803E780904100538089
:100E10000053904500538000539048005380005386
:100E2000904D01F380904C00538000F9904A00539C
:100E300080005390480053800053904100A680905A
:100E40004300A680904500A680904600A68090476B
:100E500000A680904800538000F9904D0053800018
:100E600053904803E7809041005380005390450021
:100E70005380005390480053800053904D01F380FD
:100E8000904C00538000F9904A00538000539048E2
:100E900001F38000A690480053800053904800530F
:100EA000800053904D01F380904C00538000F990E6
:100EB0004A0053800053904800538001A09048009E
:100EC0005380005390450053800053904800538056
:100ED0000053904A01F380904800538000F99045F8
:100EE0000053800053904100538000F99043005319
:100EF000800053904500538000F9904600538000D5
:100F00005390480053800053904700538000539003
:100F100046005380005390450053800053904A0090
:100F200053800053904800538000539046005380F4
:100F30000053904500538000539044005380005369
:100F400090430053800053904800538000539045D5
:100F50000053800053904100538000F990450053A6
:100F6000800053904800538000F990450053800062
:100F700053904101F38001F3904600538000539059
:100F8000410053800053904100538000539046012C
:100F90004D80904A0053800053904D01F380904B58
:100FA000014D80904A0053800053904800538000C8
:100FB00053904A0053800053904B0053800053904D
:100FC0004A00A68000A69046005380005390480136
:100FD000F3809041014D8000A6904800538000535B
:100FE000904100538000539041005380005390483B
:100FF000014D80904A0053800053904B0053800075
:1010000053904D0053800053904F005380005390F5
:101010004D014D80904B0053800053904A00538007
:101020000053904B0053800053904D005380005369
:1010300090520053800053904D0053800053904ACB
:1010400000538000539046029A80014D904A014D12
:1010500080904B00A680904D03E780904600A680CC
:10106000904800A680904A00A680904B014D809049
:101070004D00A680904F034180905200A680905171
:10108000014D80904F00A680904D034180904C0010
:10109000A680904B01F380904A01F380904800A60F
:1010A00080029A904100A680904600A680014D9053
:1010B0004600A680F008044070E020080420E0709C
:1010C0004008049060609008072070D8EC6C3810DD
:1010D000080710386CDCD87020100C00A001401EEE
:1010E000802FE07770FF588F5870F079F03E600FD6
:1010F000B00030100C280014000BC03FA07770D750
:10110000F8D78878707CF033E06F806000100A01B7
:101110001002607F848FDCFFD8F83077C42C7C0FFE
:10112000F807C8100A2200190087F8EFC46FFC30D6
:101130007C8FB8F8D07FC04F80180601C00003E252
:10114000A37FFAA6FFFFEEE3FFFE7FFFE218060093
:101150000380C547C0655FFE77FFFF7FFFC747FF7E
:10116000FE180601C00003E0007FFFC2FFFFEEE3B0
:10117000FFFE7FFFE61806000700000F8087FFFCD8
:10118000EFFFFEFFFF8ECFFFFC0000000200090F03
:101190000000030401000C0000000000000000003B
:1011A0000000000000000004080201104080401010
:1011B000204080408008020401804020100201107D
:1011C00080102040400404040404030405020202C9
:1011D00002040302020202060606060606040402D0
:1011E00002020400000000250028002B002E003120
:1011F0000000000000240027002A002D003000001D
:10120000500F11241FBECFEFDAE0DEBFCDBF11E0DB
:10121000A0E0B1E0E0E9F4E402C005900D92A83A44
:10122000B107D9F727E0A8EAB1E001C01D92A533C4
:10123000B207E1F712E1C2E0D2E104C02297FE0159
:101240000E94FE21C030D107C9F70E942C090C94DE
:1012500046220C94000008950E94190E0E942B094A
:1012600088EA91E00E94580D0E946B0DC0E0D0E02A
:101270000E946F0D2097E1F30E940000F9CF6150AA
:1012800030F02091F100FC0120830196F8CF2898DE
:1012900084E68093B10108954091AC015091AD0175
:1012A0002091AA013091AB0142175307B4F49091F9
:1012B000E8009570E1F39091E80092FD19C08093E9
:1012C000F1008091AC019091AD0101968F73992747
:1012D000892B19F48EEF8093E8008091AC019091F6
:1012E000AD0101969093AD018093AC0181E008952A
:1012F00080E00895CF92DF92EF92FF920F931F93B9
:10130000CF93DF931F92CDB7DEB7082F162FF42EA1
:10131000862F880F8E5F99830E944C0983E00E947C
:101320004C09E02EC02E9981D92E8C2D8E19811753
:1013300098F4F601F7FE02C0849101C080810E94FA
:101340004C09082F80E00E944C098023FFEFCF1A40
:10135000DF0A8111EACF01C081E00F90DF91CF91C8
:101360001F910F91FF90EF90DF90CF9008958091A3
:10137000D70081608093D70080EA8093D80089B538
:10138000806189BD89B5826089BD09B400FEFDCF49
:1013900061E070E080E090E00E94F10D8091D80063
:1013A0008F7C80618093D8008091E000807F809363
:1013B000E0000895CF93DF931F92CDB7DEB7198277
:1013C000CE0101960E94CC0E0E94F40FBE016F5F09
:1013D0007F4F0E946D0F89810F90DF91CF9108950B
:1013E0002FB7FC012083F89467706093E90008959B
:1013F000CF93DF931F92CDB7DEB7682FCE01019652
:101400000E94F0098091F20099819FBF0F90DF91B7
:10141000CF910895FF920F931F93CF93DF9300D046
:10142000CDB7DEB7F62E8A019091B001992311F065
:1014300057FF03C08FEF9FEF2BC0682FCE0101969F
:101440007A830E94F0098091F20090E0A8017A81ED
:10145000801791070CF4AC01EF2DF72FF40E84E602
:10146000FE1639F028988093B1019091F100919384
:10147000F7CF4115510521F08091F200882321F02A
:1014800089818FBFCA0104C08BE68093E800F8CF42
:101490000F900F90DF91CF911F910F91FF900895C2
:1014A000CF93DF931F92CDB7DEB741E050E0BE018E
:1014B0006F5F7F4F0E940A0A019719F4898190E0BB
:1014C00002C08FEF9FEF0F90DF91CF910895CF93E0
:1014D000DF931F92CDB7DEB7682FCE0101960E9431
:1014E000F0099091E800892F807295FF04C09091D7
:1014F000F20080E4891B99819FBF0F90DF91CF910B
:1015000008956F927F928F929F92AF92BF92CF92E7
:10151000DF92EF92FF920F931F93CF93DF931F926F
:10152000CDB7DEB7782E7B01C42EB52E8091B001E9
:10153000882369F0042F152F8AEFD82E872D80720B
:10154000982E9AE3A92E872D8074882E11C08FEFD4
:101550009FEF57C0872D0E94670A682E81110CC02B
:10156000DA94A9F361E070E080E090E00E94F10D70
:101570000115110579F73BC0282F30E0021713073A
:101580000CF4602E672DCE0101960E94F009809127
:10159000E80085FF29C0262D30E0021B130B99209F
:1015A00039F06A948FEF6816B1F01092F100F9CF1C
:1015B000F701862D77FE07C0815058F094919093E3
:1015C000F1003196F9CF815020F091919093F10084
:1015D000FACFE20EF31E8091E80085FF0FC00115DF
:1015E000110511F481100AC089818FBFC1CF5D98A8
:1015F00084E68093B2018C2D9B2D03C0A092E8005D
:10160000F3CF0F90DF91CF911F910F91FF90EF904B
:10161000DF90CF90BF90AF909F908F907F906F9012
:1016200008951092E9001092AD011092AC019093D0
:10163000AB018093AA010895CF92DF92FF920F939E
:101640001F93CF93DF9300D0CDB7DEB7F82E8A017A
:101650006B0101151105B1F0F601F7FE02C084918E
:1016600001C0808149835A830E944C0901501109AD
:10167000FFEFCF1ADF0A49815A818111EACF8FEF3C
:101680009FEF01C0CA010F900F90DF91CF911F9182
:101690000F91FF90DF90CF9008951F93CF93DF932A
:1016A0001F92CDB7DEB7162F2091E80022FFFCCFA6
:1016B000612F79830E943F098BEF8093E800812F8F
:1016C0007981972F0F90DF91CF911F9108951F92ED
:1016D0000F920FB60F921124DF92EF92FF920F93A9
:1016E0001F932F933F934F935F936F937F938F93AA
:1016F0009F93AF93BF93EF93FF93CF93DF93CDB7B8
:10170000DEB76C97DEBFCDBF1092E9008091E80094
:1017100083FF23C168E0CE0145960E943F0982EF16
:101720008093E8003D8937FF05C08091E80080FF85
:10173000FCCF03C08EEF8093E800832F807609F002
:10174000F0C02E894F89D88C21110CC0303829F473
:101750008091AF018093F10002C01092F1001092CD
:10176000F100F4C0842F90E09D29213049F431111B
:10177000EDC0019709F0EAC08091AF018D7F0AC0EA
:10178000233059F43111E2C0019709F0DFC0809194
:10179000AF0182608093AF01D9C0253041F48091C0
:1017A000E80080FFFCCF40684093E300CFC02630C4
:1017B00009F08DC0EB8CFC8C22E0D2122CC080E0B2
:1017C00090E00E94110B0E94DA0999E08E010F5FF0
:1017D0001F4FF801292F11922A95E9F79983DA8290
:1017E00091E09E8390EA98879AEF99872091AC01C7
:1017F0003091AD01275F3F4F3C832B838D83C70121
:101800000E94110B49E050E0B80180E00E941C0BDF
:101810000E94DA099BC0C7010E94110B0E94F40FBD
:10182000BE016B5E7F4F0E94960F009719F00CF07F
:101830008DC090C081E0D8120EC08B8D9C8D089712
:1018400019F481E08093A9018091A90181112FC031
:1018500066EF70E031C0E3E0DE127CC08F89882340
:1018600049F1823029F440E86CE084E191E01CC049
:10187000813029F440E86BE088E091E015C08330C6
:1018800009F068C00E94F40F8E010F5F1F4FB8016E
:101890000E94B50FF80101900020E9F73197E01B95
:1018A000F10B40E06E2FC8010E947A094DC064EE32
:1018B00070E002C061E271E06115710509F44AC08F
:1018C000FB01449150E080E80E941C0B3FC0273090
:1018D00009F440C0283021F481E08093F10036C043
:1018E0002930A1F53370B1F5E1E0F1E081E021E0CC
:1018F00036E39081992361F08093E9002093EB0017
:1019000091919093EC003093ED008F5F873089F7D1
:101910008EE78093EA001092EA008F898093B001ED
:1019200015C08B8D9C8D0E94110B898D811105C076
:10193000CE0145960E94D70E07C00E94F40FBE014B
:101940006B5E7F4F0E94D40F882321F08EEF80932F
:10195000E80003C081E28093EB006C960FB6F89428
:10196000DEBF0FBECDBFDF91CF91FF91EF91BF9151
:10197000AF919F918F917F916F915F914F913F9127
:101980002F911F910F91FF90EF90DF900F900FBE5E
:101990000F901F9018958093E9008091F2008823A2
:1019A00019F08AE38093E80008951F920F920FB612
:1019B0000F9211242F933F934F935F936F937F93D5
:1019C0008F939F93AF93BF93CF93EF93FF93C09168
:1019D000E1008091E100837F8093E1008093E1004A
:1019E000C3FF0FC01092E90081E08093EB001092DA
:1019F000EC0082E38093ED001092B00188E08093C8
:101A0000F000C2FF19C083E00E94CB0C8091B201AC
:101A1000882339F08091B20181508093B2018823EC
:101A200089F18091B101882339F08091B101815011
:101A30008093B101882341F1C4FF10C08091E2007E
:101A40008E7E81608093E2008091E1008F7E8093A2
:101A5000E1008091AE018E7E806111C0C0FF16C092
:101A60008091E2008E7E80618093E2008091E100AF
:101A70008E7E8093E1008091AE018E7E81608093A6
:101A8000AE0104C05D9ACDCF289AD6CFFF91EF91D9
:101A9000CF91BF91AF919F918F917F916F915F9106
:101AA0004F913F912F910F900FBE0F901F9018955F
:101AB0001092B0011092AF011092AE010E94B709CE
:101AC000E1EEF0E080818E7E80838DE08093E20005
:101AD000559A209A08950E9408100C9447100E946D
:101AE0003210882321F00E9427110C94431008958E
:101AF0001F920F920FB60F9211242F933F938F9343
:101B00009F93AF93BF938091B4019091B501A09141
:101B1000B601B091B7013091B30123E0230F2D3707
:101B200020F40196A11DB11D05C026E8230F0296E1
:101B3000A11DB11D2093B3018093B4019093B50111
:101B4000A093B601B093B7018091B8019091B9010B
:101B5000A091BA01B091BB010196A11DB11D809366
:101B6000B8019093B901A093BA01B093BB01BF91A2
:101B7000AF919F918F913F912F910F900FBE0F903A
:101B80001F9018952FB7F8946091B4017091B5012A
:101B90008091B6019091B7012FBF08953FB7F89497
:101BA0008091B8019091B901A091BA01B091BB01A7
:101BB00026B5A89B05C02F3F19F00196A11DB11DA8
:101BC0003FBF6627782F892F9A2F620F711D811DC5
:101BD000911D42E0660F771F881F991F4A95D1F724
:101BE0000895CF92DF92EF92FF92CF93DF936B0134
:101BF0007C010E94CE0DEB01C114D104E104F1047B
:101C000089F00E94F0120E94CE0D6C1B7D0B683E85
:101C1000734090F381E0C81AD108E108F108C85177
:101C2000DC4FEACFDF91CF91FF90EF90DF90CF9024
:101C30000895789484B5826084BD84B5816084BD44
:101C400085B5826085BD85B5816085BDEEE6F0E035
:101C5000808181608083E1E8F0E010828081826091
:101C60008083808181608083E0E8F0E08081816012
:101C70008083E1E9F0E080818260808380818160FF
:101C80008083E0E9F0E0808181608083E1ECF0E036
:101C90008081846080838081826080838081816094
:101CA0008083E3ECF0E0808181608083E0ECF0E011
:101CB000808182608083E2ECF0E0808181608083BB
:101CC000EAE7F0E0808184608083808182608083A5
:101CD0008081816080838081806880830895CF9334
:101CE000DF931F92CDB7DEB76983DC01ED91FC91E4
:101CF0000280F381E02D41E050E0BE016F5F7F4F35
:101D000009950F90DF91CF910895CF93DF93EC0168
:101D10008C859D8597FF05C082E00E94500A9D87B3
:101D20008C878C859D85DF91CF91089583E00C94FD
:101D3000CB0CFC018485958597FD06C082E00E944E
:101D4000F80990E00196089582E00E94F80990E079
:101D50000895FC018485958597FD05C02FEF3FEF21
:101D600035872487089582E00C94500ACF93DF933F
:101D7000EC0180911201882331F083E00E94810AF6
:101D80001816190634F081E090E09B838A8380E086
:101D900090E0DF91CF910895FC0120812E5F208398
:101DA00042E450E065E271E080E80C941C0BFC0119
:101DB00021818081813A59F4213209F05CC047E0E9
:101DC00050E06BE071E080E00E941C0B67C0813244
:101DD00009F051C0233289F4838190E0982F88273D
:101DE0003281832BA0E0B0E080930701909308013B
:101DF000A0930901B0930A010FC0203239F467E0C3
:101E000070E08BE091E00E944D0B0AC0223221F479
:101E100082818093120104C02D7F203209F03EC0E0
:101E200080910B0190910C01A0910D01B0910E01D8
:101E3000803B9440A105B10501F58091120180FD20
:101E40001CC080910008909101089093FF0A809334
:101E5000FE0A87E797E790930108809300082BE03C
:101E600088E190E00FB6F894A895809360000FBECB
:101E70002093600013C080E0089588E10FB6F894C5
:101E800080936000109260000FBEA8958091FE0ABA
:101E90009091FF0A909301088093000881E00895D3
:101EA0001092BF011092BE0188EE93E0A0E0B0E076
:101EB0008093C0019093C101A093C201B093C3016C
:101EC00081E491E09093BD018093BC018FEF9FEF7F
:101ED0009093C9018093C8010895EF92FF920F93E8
:101EE0001F93CF93DF937B01FC01C281D38100E07C
:101EF00010E0209781F0E881F9810280F381E02DE4
:101F0000B701CE01099597FD08C0080F191F088475
:101F1000D985C02DEECFC80102C08FEF9FEFDF91B2
:101F2000CF911F910F91FF90EF9008950F931F9302
:101F3000CF93DF938B01FC01C281D381209771F095
:101F4000E881F9810480F581E02DB801CE01099581
:101F5000009731F40884D985C02DF0CF80E090E05F
:101F6000DF91CF911F910F9108950F931F93CF93FE
:101F7000DF938B01FC01C281D381209771F0E8814E
:101F8000F9810680F781E02DB801CE010995080F8F
:101F9000111D0884D985C02DF0CFF8011082DF9182
:101FA000CF911F910F9108950F931F93CF93DF93BC
:101FB0008B01FC01C281D381209771F0E881F98106
:101FC0000190F081E02DB801CE010995811106C084
:101FD0000884D985C02DF0CF80E001C081E0DF9179
:101FE000CF911F910F9108958091100281110DC022
:101FF00082E080930C0284E080930D0210920F0225
:1020000010920E0281E0809310028CE092E008951D
:10201000E4E6F0E080818064808380818160808359
:10202000808180688083808182608083E5E6F0E043
:102030008081816080830E94EE160E9421150E949B
:102040007D180E94A7140E948C150C94051683B766
:10205000817F83BF83B7816083BF889583B78E7F7D
:1020600083BF0895CF93DF931F92CDB7DEB70E9451
:102070003215882321F089830E94AB1589810F9046
:10208000DF91CF9108950E9470170C94EF1742E0F2
:1020900050E060E088E192E00C94F1120E944B1154
:1020A0000E94FF1A0E941E1281E080931802109273
:1020B000190208950E9452110E9483110E94E41196
:1020C000882379F00E943A120E94F31C0E94351B6B
:1020D0000E940A1B0E941B1F83E08093180210922B
:1020E000190208950E944C120E94FA1C0E94F51BCE
:1020F0000E94E4120E94151F0E94C91B80911902C0
:102100008F5F809319028F3F11F40E94451F0E9438
:10211000ED12811109C00E943B1F882399F00E9493
:102120001D1C811103C0089584E007C00E94381F60
:102130008A30D0F70E941B1F83E080931802109210
:10214000190208950895CF930E944C120E94F51B26
:102150000E94E4120E94C91B8091190262E10E9450
:102160009B2180FD23C00E94381F1F928F938DE416
:1021700091E09F938F9384E08F93C7E0CF930E9469
:10218000A3170E9435129F938F9386E591E09F934A
:102190008F9385E08F93CF930E94A3178DB79EB73F
:1021A0000C960FB6F8949EBF0FBE8DBF809119029A
:1021B0008F5F809319028E3728F082E08093180297
:1021C00010921902CF9108950E944C120E94FA1C9D
:1021D0000E94F51B0E94E4120E94151F0E94C91B59
:1021E0000E94381F8A3018F08FE591E002C089E61E
:1021F00091E09F938F9384E08F9387E08F930E9469
:10220000A3170F900F900F900F900E9435129F937D
:102210008F9386E591E09F938F9385E08F9387E07E
:102220008F930E94A317809119028F5F80931902E8
:102230000F900F900F900F900F900F908A3F30F0FB
:102240000E94E711109218021092190208958091CD
:102250001802823079F030F4882351F0813071F423
:102260000C945A10833041F0843041F40C94E41003
:102270000C944E100C9472100C94A3101F928F9318
:1022800083E791E09F938F930E9481140F900F90AA
:102290000F900F90089542E050E060E08AE192E0F4
:1022A0000C94F112CF930E94F61584FF07C0909111
:1022B0001A02992319F0915090931A0286FF07C0D1
:1022C00090911A02923018F49F5F90931A0280FF47
:1022D00018C0C0911A02C13071F048F0C23089F4C0
:1022E0000E94321B91E08927CF910C942C1B81E036
:1022F00080931B0206C00E942F1B8C27CF910C9449
:10230000291BCF91089547E651E060E082E20E94E8
:10231000FA1760911A026D5F4EE386E00E947E1705
:1023200088E891E09F938F9383E08F9388E08F9369
:102330000E94A3170E942F1B0F900F900F900F90D9
:10234000882319F081E891E002C084E891E09F932E
:102350008F938EE891E09F938F9384E08F9388E032
:102360008F930E94A3170E94321B0F900F900F9023
:102370000F900F900F90882319F081E891E002C030
:1023800084E891E09F938F9385E991E09F938F93E9
:1023900085E08F9388E08F930E94A3170E942712F5
:1023A0009F938F9386E591E09F938F9387E08F9320
:1023B0001F920E94A3178DB79EB70C960FB6F89484
:1023C0009EBF0FBE8DBF089580911B02089580911E
:1023D0001E0290911F0220911C0230911D02821753
:1023E0009307A0F090931D0280931C0280E090E080
:1023F0000E94AE1484E40E94EE1480E50E94EE1464
:1024000080911C0290911D020C94FE14089510926C
:102410001D0210921C0280E090E00E94AE140E9407
:10242000B314843451F40E94B314803531F40E9403
:10243000C21490931D0280931C02089544E050E062
:1024400060E08CE192E00E94F1120C9407128091FE
:102450001C0290911D020895EEE1F2E0208131818D
:10246000280F391F31832083089580911E02909197
:102470001F02089546E050E060E080E292E00E9492
:10248000F11280E092E39093210280932002109257
:102490002302109222020895CF930E942F1586FBEB
:1024A000CC27C0F981E0C82780912302845F8C0F7C
:1024B0000E94D21790912402609123028091210200
:1024C000911106C06C0F49E152E0CF910C94FA17BC
:1024D000E091250291E09E0F90932502E077F0E0D5
:1024E00093E0F695E7959A95E1F7ED5EFE4F408112
:1024F00051816C0F0E94FA1780912502803718F0E5
:1025000080E780932502CF9108950E94F31582FF02
:102510000EC02091200230912102211593E6390747
:1025200034F428533F4F309321022093200285FF3B
:102530000EC08091200290912102811522E0920725
:1025400034F0885C9109909321028093200260917D
:102550002302809121022DE048E18C5F0E94A81C9B
:102560008093240208950F931F93CF93DF930E94CB
:10257000F61580FD08C081FF22C0C0912002D091D5
:102580002102D65005C0C0912002D0912102D45E14
:1025900000912202109123020E942F158074080FCF
:1025A000111D012B19F060E070E002C060E071E0E5
:1025B000CE01DF91CF911F910F910C948A1BDF9177
:1025C000CF911F910F91089580912402811104C031
:1025D0000E9485120C94B3120895809124020895EC
:1025E00008954115510549F01416150634F4FC01FF
:1025F0006083415051090196F7CF08951F93CF93FF
:10260000DF939B01152F0E94A721FB01EC011E16F1
:102610001F063CF4512FB901CF010E94FE12482F32
:10262000192FCA30D10514F0C95A01C0C05DE42F7A
:10263000F12FC193CF01DF91CF911F910895CF92D8
:10264000DF92EF92FF920F931F93CF93DF936B0173
:10265000FA01102FFE2C0E94A721DB01EC011A16B3
:102660001B061CF02230310554F021503109E12CB9
:10267000012FAF01B601CD010E941F13FC01CF0154
:102680000196209711F4FF2041F0CA30D10514F0D3
:10269000C95A01C0C05DC08301C01083DF91CF91D2
:1026A0001F910F91FF90EF90DF90CF9008958F9240
:1026B0009F92AF92BF92CF92EF920F931F93CF93BF
:1026C000DF934B015C01C02F1E2DDC2D80E18816AD
:1026D0009104A104B10418F4223031058CF021508A
:1026E0003109CD2EE12C0C2FC501B401E4E0969503
:1026F000879577956795EA95D1F70E945713AC01B6
:1027000094012F703327CA0101962115310511F468
:10271000112351F02A30310510F0DA5001C0D0E316
:10272000D20FFA01D08302C0FA01C083DF91CF91AA
:102730001F910F91EF90CF90BF90AF909F908F908F
:102740000895CF92DF92EF92FF92CF936B017C01BD
:10275000C22F80E1C816D104E104F10460F0C70182
:10276000B601F4E09695879577956795FA95D1F738
:102770000E94A113AC01C6018F7099278A30910580
:1027800018F026EF2C0F01C020E3280FFA01219347
:10279000CF01CF91FF90EF90DF90CF900895FB0194
:1027A000DC012D91CD01222311F02193F9CFCF012E
:1027B00008958F929F92AF92BF92CF92EF92FF9225
:1027C0000F931F93CF93DF93FC01EB01DA0110E22B
:1027D000812C912C0DE2F02E8881882309F484C08D
:1027E000853239F05E012FEFA21AB20A8083ED0123
:1027F00079C089815E01803321F032E0A30EB11CE3
:1028000005C083E0A80EB11C8A8110E390ED980FFB
:102810009A3078F4882E992487FC909490E3891A52
:102820009108E501888195012F5F3F4F590121E013
:1028300001C020E08C3681F134F4833609F44EC0B7
:10284000843669F051C08337F1F1883709F04CC004
:10285000ED0122966D917C9180E090E023C0ED0126
:1028600022968D919C9197FF05C091958195910934
:10287000F0823196222351F0EE24E394012F94014B
:10288000AF016AE070E00E941F1324C0AF016AE04C
:1028900070E00E94FE121EC0ED0124966D917D91A4
:1028A0008D919C91222351F0A1E6CA2EEE24E3944F
:1028B000012F9401AF010E9457130CC021E6AF0114
:1028C0000E94A11307C0ED012296BF018D919C913A
:1028D0000E94CF13FC01DE01E5017ECFED012296BF
:1028E0008C9180833196F7CF1082DF91CF911F9129
:1028F0000F91FF90EF90CF90BF90AF909F908F90EF
:102900000895CF93DF93CDB7DEB7A8970FB6F894AD
:10291000DEBF0FBECDBFFE01BD9661917191AF01CB
:10292000CE0101960E94D9138E010F5F1F4FF02E2A
:10293000F094F80141918F01442331F060E08F2D34
:10294000800F0E947E17F5CF0E947017FFCF42E0E4
:1029500050E060E086E292E00C94F112909327023E
:10296000809326020895F999FECF809126029091D6
:1029700027029C012F5F3F4F3093270220932602AE
:102980000C943022EF92FF920F931F93CF93DF931B
:10299000F999FECFC0912602D09127028E010F5FD8
:1029A0001F4F1093270200932602CE010E9430226F
:1029B000E82EF12CF999FECF2296D0932702C093EE
:1029C0002602C8010E9430229701382BC901DF91ED
:1029D000CF911F910F91FF90EF900895682FF99973
:1029E000FECF80912602909127029C012F5F3F4FDE
:1029F00030932702209326020C943822CF93682F1D
:102A0000C92FF999FECF80912602909127029C014F
:102A10002F5F3F4F30932702209326020E943822D7
:102A2000F999FECF80912602909127029C012F5F99
:102A30003F4F30932702209326026C2FCF910C94A6
:102A4000382241E150E060E088E292E00E94F11219
:102A50008CE38093280280E1809334020895809172
:102A600038020895CF92DF92EF92FF920F931F9357
:102A70000E94C20D20913502222391F020912F0255
:102A8000C62EC21AC09233022091290230912A0226
:102A90002F5F3F4F30932A02209329021092350274
:102AA00000912B0210912C0220912D0230912E02C8
:102AB000601771078207930730F4061B023020F17C
:102AC0000E94271021C0209138022F5F20933802E6
:102AD000209134026B017C01C20ED11CE11CF11C5F
:102AE000C0922B02D0922C02E0922D02F0922E0284
:102AF00060932F02709330028093310290933202E0
:102B000081E08093350201C080E01F910F91FF901A
:102B1000EF90DF90CF90089545E050E060E089E3CA
:102B200092E00E94F11262E089E00E948B1F62E055
:102B300085E00E948B1F62E088E00E948B1F62E0AC
:102B40008AE00E948B1F62E082E10E948B1F62E09C
:102B500083E10C948B1F43B186B12FB190E0809537
:102B600090958074992734E0959587953A95E1F78B
:102B700030E020953095207C332756E03595279519
:102B80005A95E1F7822B932B40954077842B409107
:102B9000390220913A022827342F3095232320939D
:102BA0003A02382F3095342330933B028093390218
:102BB000247721F420913D02211106C080933C022C
:102BC0002AE020933D0202C010923C02847741F03B
:102BD00080913D02882331F0815080933D02089519
:102BE00010923D02089580913902089580913A0231
:102BF0000895E82FF0E0EC50FD4F84910895AB016B
:102C0000BC018EE392E00C9407216BE972E18CE742
:102C100096EF0C94FF152F923F924F925F926F9216
:102C20007F928F929F92AF92BF92CF92DF92EF925C
:102C3000FF920F931F93CF93DF93CAE4D2E04880B3
:102C400059806A807B80A2E4B2E0CD90DD90ED9067
:102C5000FC9086E4282E82E0382EF101808091805D
:102C6000A280B380D501C4018C259D25AE25BF254A
:102C70004EE352E0FA0100811181228133813F77D6
:102C800080279127A227B3278C019D01000F111FD8
:102C9000221F331F082719272A273B27D301C201E8
:102CA000B695A7959795879584259525A625B7254B
:102CB00080279127A227B327C082D182E282F382A4
:102CC00088839983AA83BB832C013D01F1E04F22C5
:102CD0005524662477247094609450944094411C49
:102CE000511C611C711C40914E0250914F02609129
:102CF00050027091510244215521662177214825C7
:102D000059256A257B25E2E4F2E040835183628302
:102D10007383AC01BD01EAE0440F551F661F771FA6
:102D2000EA95D1F740275127622773270091520275
:102D30001091530220915402309155020421152123
:102D4000262137214027512762277327F10140832D
:102D5000518362837383052F162F272F33270C0D82
:102D60001D1D2E1D3F1DBC01CD016027712782272F
:102D700093270170112722273327CC24DD247601E5
:102D8000C01AD10AE20AF30A0091560210915702C2
:102D90002091580230915902C022D122E222F3221E
:102DA0006C257D258E259F25DF91CF911F910F9159
:102DB000FF90EF90DF90CF90BF90AF909F908F905B
:102DC0007F906F905F904F903F902F9008958EBDB1
:102DD00000000DB407FEFDCF8EB50895CF92DF92AF
:102DE000EF92FF920F931F93CF93DF9340E054E055
:102DF00060E08AE592E00E94F1120E94FA1F8CB511
:102E00008C7F8CBD8DB581608DBD61E084E00E94BA
:102E10008B1F61E086E00E948B1F61E08CE00E94C6
:102E20008B1F61E08CE00E94C41F61E070E080E0D5
:102E300090E00E94F10D60E08CE00E94C41F6AE007
:102E400070E080E090E00E94F10D61E08CE00E9473
:102E5000C41FEBECF1E1E491F0E0EE0FFF1FED5148
:102E6000FE4EC591D491E9ECF1E1E491F0E0EE0F72
:102E7000FF1FED51FE4E05911491EDEAF1E1D49062
:102E8000EBEAF1E1C49088818D298883F801808183
:102E90009C2D9095892380838881D0948D2188836F
:102EA00024EFE22E23E0F22EF70184910E94E71630
:102EB000FFEFEF1AFF0A85E1E81684E0F806A1F7B4
:102EC000F80180818C29808388818D218883DF911E
:102ED000CF911F910F91FF90EF90DF90CF900895C9
:102EE000CF93DF93CAE5D2E089910E94E71686E08E
:102EF000CA35D807C9F7DF91CF910895853110F50C
:102F0000683000F590E8699FB001112495E049020E
:102F1000A001112420E030E04B5E5B4F96E0899FDA
:102F2000600D711D1124665A7D4FFA01E20FF31FE7
:102F3000E491DB01A20FB31FEC932F5F3F4F2530CD
:102F4000310599F708951F93CF93DF93CDB7DEB77F
:102F5000A8970FB6F894DEBF0FBECDBFAE014E5C92
:102F60005F4F68A979A9CE0101960E94D91310E09C
:102F70008EA5810FE1E0F0E0EC0FFD1FE10FF11DE8
:102F80004081442329F06FA50E947E171F5FF0CF78
:102F9000A8960FB6F894DEBF0FBECDBFDF91CF91DC
:102FA0001F910895282F26952695269590E8299F0C
:102FB00090011124877051E001C0550F8A95EAF7FE
:102FC00080E090E0265A3D4FF901E80FF91F40815B
:102FD000452B4083019680389105B1F708958AE525
:102FE00092E0FC010024119211921192119203942B
:102FF000D1F708952F923F924F925F926F927F92F6
:103000008F929F92AF92BF92CF92DF92EF92FF92F8
:103010000F931F93CF93DF93FA019490DA011296E6
:1030200031968490212C312C772767FD7095E82EFE
:10303000FF24E7FCF094281408F04CC08101060F2F
:10304000171F980143E0359527954A95E1F7369586
:10305000322F222737952795C80187709927552445
:10306000539401C0550C8A95EAF7FD0150E02E0DEE
:103070003F1DDF01591550F50034110538F56490F6
:10308000A0E0B0E0C0E87C2E852F90E05C01AE0CA3
:10309000BF1C820F931F865A9D4F6501CA0EDB1E0F
:1030A00040E8C416D10450F4D72CD62039F06C0176
:1030B000CA0EDB1EE60148804528488276941196A8
:1030C000A830B10551F7585F3196D3CFDFEF2D1AF5
:1030D0003D0AB1CFDF91CF911F910F91FF90EF90FB
:1030E000DF90CF90BF90AF909F908F907F906F9028
:1030F0005F904F903F902F9008954AE150E060E03C
:103100008AE596E00E94F11261E084E10E948B1F43
:1031100061E085E10E948B1FE9EDF1E1E491F0E0CF
:10312000EE0FFF1FED51FE4E8591949190936F0627
:1031300080936E06EBEBF1E1E491E0937006EAED2B
:10314000F1E1E491F0E0EE0FFF1FED51FE4E8591AD
:1031500094919093720680937106ECEBF1E1E49107
:10316000E093730610929000A1E9B0E01C921092D7
:103170008000E1E8F0E010828C9188608C938C9163
:1031800081608C938081886080838081816080836E
:10319000E5E6F0E08081877F8083E4E6F0E08081EF
:1031A000877F8083089590E0FC01E65AF94F1182F1
:1031B000FC01EE0FFF1FE80FF91FE65AF94FA48933
:1031C000B5899C918689809589238C930895E1E93E
:1031D000F0E08081887F816080838FEF9FEF909304
:1031E000990080939800E1E7F0E08081826080831D
:1031F0000895909366068093650690936806809381
:10320000670681E090E0A0E0B0E080935D069093D7
:103210005E06A0935F06B09360061092610610925E
:103220006206109263061092640610925B0610927A
:103230005C0680935A060C94E7184115510591E0FD
:103240006907710548F036E076956795579547957B
:103250003A95D1F793E001C091E0415051096109DD
:103260007109811110C080919100887F892B809312
:103270009100509399004093980080917100826072
:1032800080937100089580918100887F892B8093BD
:103290008100509389004093880080916F00826084
:1032A00080936F000895CF93C82F813021F48091CF
:1032B0006906811126C0E62FF0E0EE0FFF1FEB5EDE
:1032C000F64F2591349140E050E0C11108C02093A1
:1032D0006106309362064093630650936406EC2FB8
:1032E000F0E0E65AF94F81E0818360E074E284EF18
:1032F00090E00E94DD21BA01A9018C2FCF910C949E
:103300001D19CF910895CF93DF93EC018091690649
:1033100081112DC081E080936906DE01AA0FBB1FD9
:103320009A01AB010E94022228EE33E040E050E017
:103330000E94BB212115310541055105C1F02093A3
:103340006A0630936B0640936C0650936D069E019F
:1033500040E050E060E072E18AE790E00E94DD2109
:10336000BA01A90181E0DF91CF910C941D19DF9181
:10337000CF910895811106C0909171009D7F909327
:10338000710005C090916F009D7F90936F0090E059
:10339000FC01EE0FFF1FE80FF91FE65AF94FA48951
:1033A000B5899C918689809589238C93089580E0C6
:1033B0000E94BA1981E00E94BA1910925A06089523
:1033C000CF93DF93CCE9D1E0E0916706F0916806F6
:1033D000BF016F5F7F4F709368066093670624910B
:1033E000922F907F822F8F70903971F028F490384F
:1033F000F1F40E94D318E8CF903E81F0903FB9F4E9
:10340000DF91CF910C94D7193296F0936806E09330
:103410006706FB0164910E945319D6CF809165061F
:10342000909166069093680680936706CDCF97FDCE
:1034300030C03296F0936806E0936706FB01649112
:10344000A62FB0E0B22B2091610630916206409128
:103450006306509164060E9402226C507E4F8F4F8B
:103460009F4F28EE33E040E050E00E94BB21211541
:1034700031054105510511F581E090E0A0E0B0E093
:1034800080935D0690935E06A0935F06B0936006FE
:103490001DC08091650690916606681B790B7F932D
:1034A0006F931F922F93DF93CF930E9481140F90FD
:1034B0000F900F900F900F900F9086CF20935D0686
:1034C00030935E0640935F0650936006DF91CF9184
:1034D000089581E00E94BA191092690608951F921A
:1034E0000F920FB60F9211242F933F934F935F9338
:1034F0006F937F938F939F93AF93BF93EF93FF93BC
:1035000080915B06882349F0E0916E06F0916F068A
:103510008081909170068927808380915D069091CB
:103520005E06A0915F06B09160060197A109B109FE
:1035300080935D0690935E06A0935F06B09360064D
:10354000892B8A2B8B2B11F40E94E019FF91EF91AC
:10355000BF91AF919F918F917F916F915F914F91AB
:103560003F912F910F900FBE0F901F9018951F92B3
:103570000F920FB60F9211242F933F934F935F93A7
:103580006F937F938F939F93AF93BF93EF93FF932B
:10359000E0917106F09172068081909173068927FF
:1035A0008083809169068823C9F080916A06909192
:1035B0006B06A0916C06B0916D060197A109B10947
:1035C00080936A0690936B06A0936C06B0936D0689
:1035D000892B8A2B8B2B11F40E94691AFF91EF9192
:1035E000BF91AF919F918F917F916F915F914F911B
:1035F0003F912F910F900FBE0F901F90189542E0B2
:1036000050E060E084E796E00E94F11281E0809350
:103610007506089580917406882321F085E19AE06B
:103620000C94F91808952091750621110C948319B2
:10363000089544E650E060E070E08AE491E00C9484
:10364000131B44E650E060E070E08FEA90E00C94D9
:10365000131B8093740608958093750608958091D6
:103660007406089580917506089542E050E060E088
:1036700085ED96E00E94F11249E150E060E08CEBAC
:1036800096E00E94F11246E450E060E086E796E0A2
:103690000C94F1122091D506ECEBF6E080818823A2
:1036A00051F083819481889694838383811590441B
:1036B00014F010822150359686E0E53DF80771F749
:1036C0002093D50608950F931F93CF93DF930E9405
:1036D0002F1586FB882780F991E08927CCEBD6E06F
:1036E000082F10E0000F111F075D1E4F88818823EF
:1036F00039F0F801408151816C818A810E94FA176A
:103700002596F6E0C53DDF0789F7DF91CF911F9140
:103710000F910895ECEBF6E020E030E0408141119C
:1037200015C045E0429FF001439FF00D1124E45481
:10373000F94F928381837483638381E080838091D6
:10374000D5068F5F8093D5060C94191B2F5F3F4FD2
:1037500035962530310511F708954091D606E6E7F4
:10376000F6E08081882369F0838194812581368108
:10377000821B930B9483838381159A4014F41082E7
:103780004150379686E0EC3BF80759F74093D60650
:1037900008950E944A1B0C94AD1B0F931F93CF9367
:1037A000DF930E942F1582958F7090E063E070E0A8
:1037B0000E94A7218C01C6E7D6E0000F111F0D5D06
:1037C0001E4F8881882339F0F801408151816C8136
:1037D0008A810E94FA172796F6E0CC3BDF0789F72B
:1037E000DF91CF911F910F9108950E94631B0C945C
:1037F000CD1BE6E7F6E020E030E0A081A11116C085
:10380000A7E0A29FF001A39FF00D1124EA58F94F01
:1038100092838183748363835683458381E08083AD
:103820008091D6068F5F8093D60608952F5F3F4F15
:1038300037962A30310509F7089581E09091D60630
:10384000911180E00895AF92CF92EF92FF920F9383
:103850001F93772767FD7095FF24E7FCF094F7012D
:10386000EA0DF11DA7FCFA956E177F07F4F4620FBD
:10387000711D27FD7A95E616F706BCF4992787FD9A
:103880009095112707FD109598012C0D311DC7FC4F
:103890003A95821793074CF49C01240F311D47FD84
:1038A0003A9581E0021713070CF080E01F910F9109
:1038B000FF90EF90CF90AF9008957F928F929F925C
:1038C000AF92BF92CF92DF92EF92FF920F931F932E
:1038D000CF93DF93F82ED62EB42E722ECCEBD6E0FB
:1038E000812C912C18811123D9F06C81A72CCB2C21
:1038F000ED2C0F2D27E046E08A810E94231C8823AF
:1039000079F08091D50681508093D50685E0889D19
:10391000F001899DF00D1124E454F94F108209C083
:103920008FEF881A980A259685E088169104D1F6BB
:1039300010E0812FDF91CF911F910F91FF90EF90B9
:10394000DF90CF90BF90AF909F908F907F90089521
:103950007F928F929F92AF92BF92CF92DF92EF921F
:10396000FF920F931F93CF93DF93F82ED62EB42E92
:10397000722EC6E7D6E0812C912C18811123D9F044
:103980006C81A72CCB2CED2C0F2D24E044E08A81F8
:103990000E94231C882379F08091D6068150809361
:1039A000D60687E0889DF001899DF00D1124EA5824
:1039B000F94F108209C08FEF881A980A27968AE07B
:1039C00088169104D1F610E0812FDF91CF911F91DD
:1039D0000F91FF90EF90DF90CF90BF90AF909F90AE
:1039E0008F907F9008954DE550E060E087ED96E080
:1039F0000C94F112CF93DF93CDEDD6E0FE01319719
:103A00008081882361F0E881F0E0EE0FFF1FE35D25
:103A1000FE4F408151816E818A810E94FA172B9658
:103A200087E0C533D80751F7DF91CF910895EF9222
:103A3000FF920F931F93CF93DF9307ED16E0E12CD6
:103A4000F12CE701C952D94F8D81882309F443C075
:103A50008E818650823078F48F8591E0980F9F8711
:103A60000E94F915F80123853485280F311D87FD43
:103A70003A9534872387F80187819085218532859F
:103A8000820F931F90878783892F990F990B9C0131
:103A9000285E3F4F2839310538F01D828091DB06C2
:103AA00081508093DB0617C0F80164852E854D8513
:103AB0000E945D1C882379F01D828091DB06815075
:103AC0008093DB068E8190E09595879501960E9404
:103AD0002C120E94211BFBE0EF0EF11C055F1F4F13
:103AE00088E5E816F10409F0ACCFDF91CF911F9182
:103AF0000F91FF90EF900895EF92FF920F931F9315
:103B0000CF93DF9307ED16E0C0E0D0E0CE018952FD
:103B1000994F7C01FC0185818823D1F186818650F3
:103B20008230B0F10E940B162091DA06F8E02F9F48
:103B300090011124442737FD4095542F0E94BB214A
:103B4000672B682B692B21F5F70186818450409102
:103B5000D70650E0823018F4465F5F4F02C04C5EDB
:103B60005F4F440F551FF7018585869590E0982F8C
:103B70008827F80127813085820F931F9C013550DB
:103B80002115364728F4F801638574850E94F91BD6
:103B90002B96055F1F4FC835D10509F0B7CFDF91D0
:103BA000CF911F910F91FF90EF900895CF93DF93E6
:103BB0008091D806882309F435C18091D9068823DD
:103BC00011F081505FC00E940B162091DA0630E0A0
:103BD00040E050E00E94BB21672B682B692B09F065
:103BE00021C1ECEDF6E080E090E02081222331F06D
:103BF00001963B9688309105C1F714C12BE0289FB0
:103C0000E001299FD00D1124C452D94F0E940B16F8
:103C100022E130E040E050E00E94BB21FB013597FB
:103C2000ED30F10590F1198280E09AEE9B838A8352
:103C30000E940B166F71772788279927665E7F4F42
:103C40008F4F9F4FB82FA72F962F88279F838E8344
:103C50008091D7062AE0829FC0011124C2969D83DD
:103C60008C8387E1888786E0898781E088838091DB
:103C7000DB068F5F8093DB068091D80681508093AE
:103C8000D80685E08093D906CDC0EA5AFF4F0C9440
:103C9000FC2181E0898380E09FE79B838A830E94E7
:103CA0000B166F71772788279927665E7F4F8F4F96
:103CB0009F4FB82FA72F962F88279F838E83209101
:103CC000D70636EF3203C0011124C297C8CF82E075
:103CD000898380E099EE9B838A830E940B162CE0F7
:103CE00030E040E050E00E94BB21625D7F4F8F4F8B
:103CF0009F4FB82FA72F962F88279F838E83809161
:103D0000D7062AE0829FC0011124C2961FC083E01B
:103D1000898380E09FE79B838A830E940B162CE0B7
:103D200030E040E050E00E94BB21625D7F4F8F4F4A
:103D30009F4FB82FA72F962F88279F838E83209180
:103D4000D70636EF3203C0011124C2979D838C83BE
:103D500088E188CF84E0898380E093EF9B838A8326
:103D60000E940B1625E030E040E050E00E94BB21AD
:103D7000675E7F4F8F4F9F4FB82FA72F962F8827B3
:103D80009F838E838091D7062AE0829FC0011124F1
:103D900084529F4F20C085E0898380E09FE79B830A
:103DA0008A830E940B1625E030E040E050E00E943C
:103DB000BB21675E7F4F8F4F9F4FB82FA72F962F46
:103DC00088279F838E832091D70636EF3203C00168
:103DD00011248C5D91099D838C838EE088878AE015
:103DE00043CF86E0898380E094EF9B838A8380E0E1
:103DF00094E19F838E8388E290E00CC087E0898302
:103E000080E09FE79B838A8380E094E19F838E8399
:103E100088ED9FEF9D838C838DE088878CE0898778
:103E20001A8623CFDF91CF9108950E94171D0E941B
:103E30007C1D0C94D61D8091D7068F5F8093D7068A
:103E4000982F990F990F965F9093D80626EF829F2F
:103E5000802D11248A568093DA06953618F094E660
:103E60009093D806823318F482E38093DA0608959B
:103E70008091D70608958091D806811104C081E011
:103E80009091DB06911180E008958091DA068451CB
:103E90008E3108F48EE18093DA06089590E0FC01FB
:103EA0003197EF30F105B0F5ED59FF4F0C94FC213F
:103EB000809180008F7703C0809180008F7D8093F8
:103EC0008000089580918000877FF9CF84B58F7737
:103ED00002C084B58F7D84BD0895809190008F7756
:103EE00007C0809190008F7D03C080919000877FF4
:103EF0008093900008958091C0008F7703C08091D7
:103F0000C0008F7D8093C00008958091C200877F9C
:103F10008093C2000895CF93DF9390E0FC01E955B0
:103F2000FE4E2491FC01EB53FE4E8491882349F10F
:103F300090E0880F991FFC01EF50FE4EA591B491BF
:103F40008D519E4EFC01C591D4919FB7611108C05F
:103F5000F8948C91209582238C93888182230AC0C7
:103F6000623051F4F8948C91322F309583238C93E6
:103F70008881822B888304C0F8948C91822B8C9347
:103F80009FBFDF91CF9108950F931F93CF93DF933E
:103F90001F92CDB7DEB7282F30E0F901E757FE4E6C
:103FA0008491F901E955FE4E1491F901EB53FE4E4F
:103FB00004910023C9F0882321F069830E944E1FD9
:103FC0006981E02FF0E0EE0FFF1FED51FE4EA5914D
:103FD000B4919FB7F8948C91611103C0109581231F
:103FE00001C0812B8C939FBF0F90DF91CF911F91C8
:103FF0000F910895CF93CFB7F89480913407811132
:1040000027C0E6EDF1E18491E8EBF1E19491E82F2E
:10401000F0E0EE0FFF1FEF50FE4EA591B4918C9192
:10402000892321F461E081E10E94C41F61E081E104
:104030000E948B1F8CB580618CBD8CB580648CBD5B
:1040400061E08FE00E948B1F61E080E10E948B1F86
:10405000809134078F5F80933407CFBFCF9108954D
:104060004F925F926F927F928F929F92AF92BF9288
:10407000CF92DF92EF92FF920F931F93FC01848403
:104080009584A684B7840481158126813781408474
:10409000518462847384B301A201402751276227AF
:1040A0007327C080D180E280F380E894F7F84C2534
:1040B0005D256E257F256A017B01CC0CDD1CEE1C85
:1040C000FF1CC426D526E626F726B501A401769561
:1040D000679557954795482559256A257B254C2591
:1040E0005D256E257F2500831183228333834487DA
:1040F0005587668777874A015B0181E0882299248A
:10410000AA24BB24B094A09490948094811C911C08
:10411000A11CB11C00891189228933890821192128
:104120002A213B21042515252625372504831583BF
:10413000268337832AE0440F551F661F771F2A9571
:10414000D1F74C255D256E257F25048915892689A3
:104150003789082119212A213B214027512762272D
:10416000732740875187628773871F910F91FF9054
:10417000EF90DF90CF90BF90AF909F908F907F9007
:104180006F905F904F900895FC0140815181628152
:1041900073817F77452B462B472BC1F54481558191
:1041A00066817781452B462B472B81F540855185CC
:1041B00062857385452B462B472B41F544855585F4
:1041C00066857785452B462B472B01F544E550E066
:1041D00060E070E0408351836283738349E450E080
:1041E00060E070E044835583668377834EE450E05B
:1041F00060E070E0408751876287738749E550E04F
:1042000060E070E044875587668777870895CF928E
:10421000DF92EF92FF920F931F93CF93DF93EC0106
:10422000488359836A837B8388899989AA89BB8952
:104230008C839D83AE83BF838C899D89AE89BF8922
:1042400088879987AA87BB87888D998DAA8DBB8D12
:104250008C879D87AE87BF87C12CD12C7601C394F4
:10426000F601E370FF27EE0FFF1FEE0FFF1FEC0FAD
:10427000FD1FD6011197A370BB27AA0FBB1FAA0F62
:10428000BB1FAC0FBD1F8D919D910D90BC91A02DBA
:104290009C01AD016EE156954795379527956A9536
:1042A000D1F7282739274A275B2765E679E887E091
:1042B0009CE60E948B216C0D7D1D8E1D9F1D008133
:1042C0001181228133810627172728273927008368
:1042D0001183228333838FEFC81AD80AE80AF80AB9
:1042E00088E0C816D104E104F10409F0B9CFCE0189
:1042F0000E94C42008E010E0CE010E94302001504E
:104300001109D1F7DF91CF911F910F91FF90EF909D
:10431000DF90CF900895DB018F939F930E9402223C
:10432000BF91AF91A29F800D911DA39F900DB29F51
:10433000900D11240895991B79E004C0991F9617D8
:1043400008F0961B881F7A95C9F78095089597FB0A
:10435000072E16F4009407D077FD09D00E940D2295
:1043600007FC05D03EF4909581959F4F0895709578
:1043700061957F4F0895A1E21A2EAA1BBB1BFD0178
:104380000DC0AA1FBB1FEE1FFF1FA217B307E40734
:10439000F50720F0A21BB30BE40BF50B661F771F8C
:1043A000881F991F1A9469F760957095809590956C
:1043B0009B01AC01BD01CF010895052E97FB1EF4B2
:1043C00000940E94F42157FD07D00E94BB2107FCF6
:1043D00003D04EF40C94F4215095409530952195DE
:1043E0003F4F4F4F5F4F0895909580957095619521
:1043F0007F4F8F4F9F4F0895EE0FFF1F0590F49151
:10440000E02D09940E942122A59F900DB49F900D4C
:10441000A49F800D911D11240895AA1BBB1B51E17F
:1044200007C0AA1FBB1FA617B70710F0A61BB70B24
:10443000881F991F5A95A9F780959095BC01CD01C9
:104440000895A29FB001B39FC001A39F700D811D6D
:104450001124911DB29F700D811D1124911D08958D
:10446000F999FECF92BD81BDF89A992780B508953C
:10447000262FF999FECF1FBA92BD81BD20BD0FB680
:10448000F894FA9AF99A0FBE01960895F894FFCF1E
:1044900000C18081000000FFFFFFFF00E10000007D
:1044A000000000BE0288025202520252028802BE7E
:1044B000024F02C110BB10B510D010C710751161AA
:1044C000114D11391123110D11F310D910000000F5
:1044D000006F0EB60E990EA90E850E960E57415618
:1044E00045202025640053434F5245202564004356
:1044F0004F4D504C455445210047414D45204F56A6
:104500004552005B47616D65206163743D25785DB0
:10451000004F4E004F46460053544152540042470C
:104520004D20257300534520202573005B536E6496
:084530002025782025785D00AC
:00000001FF
