:100000000C94E5080C940D090C940D090C940D0941
:100010000C940D090C940D090C940D090C940D0908
:100020000C940D090C940D090C94810C0C94210B6B
:100030000C940D090C940D090C940D090C940D09E8
:100040000C940D090C94981A0C940D090C940D093C
:100050000C940D090C940D090C940D090C94210DB0
:100060000C940D090C940D090C940D090C940D09B8
:100070000C940D090C940D090C940D090C940D09A8
:100080000C94501A0C940D090C940D090C940D0944
:100090000C940D090C940D090C940D090C940D0988
:1000A0000C940D090C940D090C940D091201000219
:1000B000EF020140412336800001010203011201D9
:1000C00000020000004041233680000101020301CC
:1000D00041726475696E6F204C4C43005553422049
:1000E000494F20426F6172640004030904080B0049
:1000F00002020201000904000001020200000524BE
:100100000010010524010101042402060524060053
:10011000010705810310004009040100020A0000E4
:10012000000705020240000007058302400000406E
:1001300016FFC0EE944000F800802044D281F08881
:1001400000871044B10110880085104E910110887D
:100150000085100000011088008513FF1FF11F8724
:10016000E0851400900900001085143851C51F8ED9
:1001700010851444512510891085147C512510894F
:1001800010851400512510891085147FD125108900
:10019000108514401125108910871447D1C51F8977
:1001A000108024445008818910FFC43851F0FFF9B1
:1001B000F000040091000000000003FF11000000A7
:1001C000000000001100000000000000110000000D
:1001D0000000000011000000000000001F000000EF
:1001E00000200D00044000000680000007100010F1
:1001F000872000884FC100443FF24023BFFC801F8E
:10020000FFFF003FFFFFE0FFFFFFB0FFFFFE607555
:10021000AAA9C03FFFFF00080100200D0001000057
:1002200000038000001EF00000711C0001838300A9
:10023000030EE1800E3D78E00E3D78E0030EE18094
:100240000183830000711C00001EF0000003800089
:10025000200D000100000001000000010000000668
:10026000C000001EF00007E10FC0780FE03C07E17E
:100270000FC0001930000006C0000001000000019E
:10028000000000010000200D00000000000100003F
:1002900000010000000380000006C00000393800A3
:1002A00001E38F00003938000006C0000003800021
:1002B0000001000000010000000000000002030532
:1002C0000608090B0C0E101113141617181A1B1D13
:1002D0001E20212224252627292A2B2C2D2E2F30A3
:1002E000313233343536373838393A3B3B3C3C3D94
:1002F0003D3E3E3E3F3F3F4040404040404040400A
:1003000040403F3F3F3E3E3E3D3D3C3C3B3B3A391B
:10031000383837363534333231302F2E2D2C2B2AC6
:1003200029272625242221201E1D1B1A18171614E2
:100330001311100E0C0B09080605030200FEFDFB4D
:10034000FAF8F7F5F4F2F0EFEDECEAE9E8E6E5E3C8
:10035000E2E0DFDEDCDBDAD9D7D6D5D4D3D2D1D018
:10036000CFCECDCCCBCAC9C8C8C7C6C5C5C4C4C307
:10037000C3C2C2C2C1C1C1C0C0C0C0C0C0C0C0C071
:10038000C0C0C1C1C1C2C2C2C3C3C4C4C5C5C6C73F
:10039000C8C8C9CACBCCCDCECFD0D1D2D3D4D5D674
:1003A000D7D9DADBDCDEDFE0E2E3E5E6E8E9EAEC38
:1003B000EDEFF0F2F4F5F7F8FAFBFDFEAED580A80C
:1003C0003FD300408D142000A1C8DA1281CFD9F1AB
:1003D000DB40A4A6AF200021007F22000700000020
:1003E00000003E5B4F5B3E3E6B4F6B3E1C3E7C3ED7
:1003F0001C183C7E3C181C577D571C1C5E7F5E1CE5
:1004000000183C1800FFE7C3E7FF0018241800FF9E
:10041000E7DBE7FF30483A060E2629792926407F98
:10042000050507407F05253F5A3CE73C5A7F3E1CA7
:100430001C08081C1C3E7F14227F22145F5F005F93
:100440005F06097F017F006689956A606060606071
:1004500094A2FFA29408047E040810207E201008B5
:10046000082A1C08081C2A08081E101010100C1E50
:100470000C1E0C30383E3830060E3E0E06000000D2
:10048000000000005F00000007000700147F147FD9
:1004900014242A7F2A1223130864623649562050F6
:1004A0000008070300001C2241000041221C002A12
:1004B0001C7F1C2A08083E080800807030000808CD
:1004C000080808000060600020100804023E51493E
:1004D000453E00427F400072494949462141494D0D
:1004E000331814127F1027454545393C4A49493194
:1004F00041211109073649494936464949291E0013
:1005000000140000004034000000081422411414BC
:10051000141414004122140802015909063E415DD9
:10052000594E7C1211127C7F494949363E41414166
:10053000227F4141413E7F494949417F09090901E3
:100540003E414151737F0808087F00417F410020F0
:1005500040413F017F081422417F404040407F02DC
:100560001C027F7F0408107F3E4141413E7F090904
:1005700009063E4151215E7F09192946264949490C
:100580003203017F01033F4040403F1F2040201FB6
:100590003F4038403F631408146303047804036148
:1005A00059494D43007F4141410204081020004158
:1005B00041417F04020102044040404040000307E3
:1005C000080020545478407F284444383844444438
:1005D00028384444287F385454541800087E0902AF
:1005E00018A4A49C787F0804047800447D4000206F
:1005F00040403D007F1028440000417F40007C04C3
:100600007804787C080404783844444438FC18247E
:10061000241818242418FC7C080404084854545452
:100620002404043F44243C4040207C1C2040201CE7
:100630003C4030403C44281028444C9090907C44EE
:1006400064544C440008364100000077000000412B
:1006500036080002010204023C2623263C1EA1A10A
:1006600061123A4040207A385454555921555579F1
:1006700041215454784121555478402054557940B3
:100680000C1E527212395555555939545454593912
:10069000555454580000457C410002457D420001FC
:1006A000457C40F0292429F0F0282528F07C545579
:1006B00045002054547C547C0A097F4932494949F9
:1006C000323248484832324A4848303A4141217A29
:1006D0003A42402078009DA0A07D39444444393DF1
:1006E0004040403D3C24FF2424487E4943662B2F54
:1006F000FC2F2BFF0929F620C0887E0903205454C3
:1007000079410000447D413048484A323840402217
:100710007A007A0A0A727D0D19317D2629292F283F
:10072000262929292630484D40203808080808087D
:10073000080808382F10C8ACBA2F102834FA000067
:100740007B000008142A142222142A14089500227F
:100750000095AA005500AAAA55AA55AA000000FFB4
:1007600000101010FF00141414FF001010FF00FF01
:100770001010F010F0141414FC001414F700FF0013
:1007800000FF00FF1414F404FC141417101F1010C1
:100790001F101F1414141F00101010F00000000090
:1007A0001F101010101F10101010F010000000FF8C
:1007B000101010101010101010FF10000000FF1487
:1007C0000000FF00FF00001F10170000FC04F414DD
:1007D000141710171414F404F40000FF00F7141495
:1007E0001414141414F700F7141414171410101F11
:1007F000101F141414F4141010F010F000001F1047
:100800001F0000001F14000000FC140000F010F096
:100810001010FF10FF141414FF141010101F00000C
:100820000000F010FFFFFFFFFFF0F0F0F0F0FFFF1F
:10083000FF0000000000FFFF0F0F0F0F0F384444B0
:1008400038447C2A2A3E147E02020606027E027E7C
:100850000263554941633844443C04407E201E20D5
:1008600006027E020299A5E7A5991C2A492A1C4C7A
:100870007201724C304A4D4D303048784830BC627D
:100880005A463D3E494949007E0101017E2A2A2AF5
:100890002A2A44445F444440514A444040444A5117
:1008A000400000FF0103E080FF000008086B6B08B8
:1008B0003612362436060F090F06000018180000FD
:1008C000001010003040FF0101001F01011E00193F
:1008D0001D1712003C3C3C3C0000000000100011C1
:1008E000001200130015001600170018001A001C53
:1008F000001D001F00210023002500270029002CD7
:10090000002E003100340037003A003E004100451F
:100910000049004E00520057005C00620068006E03
:100920000075007B0083008B0093009C00A500AF46
:1009300000B900C400D000DC00E900F70006011592
:1009400001260137014A015D01720188019F01B84A
:1009500001D201EE010B022A024B026E029302BA8F
:1009600002E40210033F037003A403DC03170455E1
:10097000049704DD0427057505C80520067D06E0FB
:10098000064907B8072D08A9082D09B9094D0AEA33
:100990000A900B400CFA0CC00D910E6F0F5A1053B9
:1009A000115B1272139A14D41520178018F5198050
:1009B0001B231DDE1EB420A622B524E4263429A75D
:1009C0002B402E0031EA330037453ABC3D68414C9C
:1009D000456B49C84D68524F57805C0062053590A1
:1009E00041005380005390410053800053904100D8
:1009F0005380005390410053800053903E00538039
:100A000000539041005380005390460053800053A0
:100A10009046005380005390460053800053904608
:100A20000053800053904100538000539046005380
:100A3000800053904A0053800053904A0053800036
:100A400053904A0053800053904A005380005390C3
:100A5000460053800053904A0053800053904D004D
:100A600053800053904A0053800053904B005380B2
:100A70000053904D0053800053904A005380005320
:100A8000904B0053800053904D0053800053904D85
:100A90000053800053904D0053800053904D0053FD
:100AA000800053904D0053800053904D00538000C0
:100AB00053904D0053800053904D0053800053904D
:100AC0004D0053800053904D0053800053904D00D3
:100AD00053800053904D0053800053904D05DB80B0
:100AE00001F3903A014D8000A6903A014D8000A696
:100AF000903A014D8000A6903A014D8000A6903AB0
:100B0000014D8000A6903A014D8000A6903A014D1B
:100B10008000A6903A014D8000A6904600538000C8
:100B200053904100538000539041005380005390F4
:100B300046014D80904A0053800053904D01F38050
:100B4000904B014D80904A005380005390480053D1
:100B5000800053904A0053800053904B0053800014
:100B600053904A00A68000A6904600538000539000
:100B70004801F3809041014D8000A69048005380C9
:100B80000053904100538000539041005380005324
:100B90009048014D80904A0053800053904B005381
:100BA000800053904D0053800053904F00538000BD
:100BB00053904D014D80904B0053800053904A005C
:100BC00053800053904B0053800053904D0053804E
:100BD000005390520053800053904D0053800053B7
:100BE000904A00538000539046029A80014D904AEB
:100BF000014D80904B00A680904D03E78090460009
:100C0000A680904800A680904A00A680904B014D97
:100C100080904D00A680904F034180905200A680A6
:100C20009051014D80904F00A680904D03418090DF
:100C30004C00A680904B01F380904A01F3809048CD
:100C400000A680904600A680904500A680904300B4
:100C5000A680904500A680904300A6809041014D5B
:100C60008000A6904100A680904300A68090450099
:100C7000A68090460053800053904100538000535B
:100C8000904100538000539046014D80904A00539C
:100C9000800053904D01F380904B014D80904A00AD
:100CA0005380005390480053800053904A00538073
:100CB0000053904B0053800053904A00A68000A63A
:100CC00090460053800053904801F3809041014DBD
:100CD0008000A6904800538000539041005380004C
:100CE00053904100538000539048014D80904A003A
:100CF00053800053904B0053800053904D0053801D
:100D00000053904F0053800053904D014D80904B05
:100D10000053800053904A0053800053904B00537F
:100D2000800053904D005380005390520053800038
:100D300053904D0053800053904A005380005390CD
:100D400046029A80014D904A014D80904B00A6804A
:100D5000904D03E780904600A680904800A68090C2
:100D60004A00A680904B014D80904D00A680904F88
:100D7000034180905200A6809051014D80904F0019
:100D8000A680904D034180904C00A680904B01F3CB
:100D900080904A01F380904800A680029A9041001A
:100DA000A680904600A680904100A680904300A6B1
:100DB00080904500A680904600A680904700A680BF
:100DC000904800538000F9904D00538000539048A4
:100DD00003E780904100538000539045005380000A
:100DE0005390480053800053904D01F380904C0085
:100DF000538000F9904A005380005390480053807C
:100E00000053904100A680904300A680904500A624
:100E100080904600A680904700A6809048005380AE
:100E200000F9904D0053800053904803E7809041B3
:100E30000053800053904500538000539048005366
:100E4000800053904D01F380904C00538000F99046
:100E50004A0053800053904801F38000A690480058
:100E60005380005390480053800053904D01F3800D
:100E7000904C00538000F9904A00538000539048F2
:100E800000538001A09048005380005390450053C8
:100E900080005390480053800053904A01F38090A3
:100EA0004800538000F99045005380005390410062
:100EB000538000F9904300538000539045005380C5
:100EC00000F990460053800053904800538000532F
:100ED0009047005380005390460053800053904544
:100EE0000053800053904A005380005390480053B1
:100EF000800053904600538000539045005380007B
:100F0000539044005380005390430053800053900B
:100F10004800538000539045005380005390410097
:100F2000538000F99045005380005390480053804F
:100F300000F990450053800053904101F38001F384
:100F400090460053800053904100538000539041DD
:100F500000538000539046014D80904A005380001A
:100F600053904D01F380904B014D80904A00538087
:100F7000005390480053800053904A005380005320
:100F8000904B0053800053904A00A68000A69046E4
:100F90000053800053904801F3809041014D800040
:100FA000A690480053800053904100538000539016
:100FB0004100538000539048014D80904A00538077
:100FC0000053904B0053800053904D0053800053CA
:100FD000904F0053800053904D014D80904B005333
:100FE000800053904A0053800053904B0053800080
:100FF00053904D0053800053905200538000539003
:101000004D0053800053904A005380005390460295
:101010009A80014D904A014D80904B00A680904DE2
:1010200003E780904600A680904800A680904A0082
:10103000A680904B014D80904D00A680904F0341BB
:1010400080905200A6809051014D80904F00A68064
:10105000904D034180904C00A680904B01F380900E
:101060004A01F380904800A680029A904100A68031
:10107000904600A680014D904600A680F0080440EE
:1010800070E020080420E070400804906060900840
:10109000072070D8EC6C3810080710386CDCD8705A
:1010A00020100C00A001401E802FE07770FF588FA9
:1010B0005870F079F03E600FB00030100C2800142A
:1010C000000BC03FA07770D7F8D78878707CF033DA
:1010D000E06F806000100A011002607F848FDCFFE7
:1010E000D8F83077C42C7C0FF807C8100A220019F2
:1010F0000087F8EFC46FFC307C8FB8F8D07FC04F0A
:1011000080180601C00003E2A37FFAA6FFFFEEE30A
:10111000FFFE7FFFE21806000380C547C0655FFE43
:1011200077FFFF7FFFC747FFFE180601C00003E0FF
:10113000007FFFC2FFFFEEE3FFFE7FFFE618060021
:101140000700000F8087FFFCEFFFFEFFFF8ECFFF41
:10115000FC0000000200090F0000030401000C0065
:10116000000000000000000000000000000000047B
:101170000802011040804010204080408008020496
:10118000018040201002011080102040400404041F
:10119000040403040502020202040302020202061E
:1011A00006060606060404020202040000000025EA
:1011B0000028002B002E0031000000000024002732
:1011C000002A002D00300000F60E11241FBECFEFC4
:1011D000DAE0DEBFCDBF11E0A0E0B1E0EEE9F5E47A
:1011E00002C005900D92A83AB107D9F727E0A8EA06
:1011F000B1E001C01D92A533B207E1F718E0C5EEDA
:10120000D8E004C02197FE010E948322C43ED1078A
:10121000C9F70E9410090C94CD220C940000089587
:101220000E94C40D0E940F0988EA91E00E94010DFE
:101230000E94140DC0E0D0E00E94180D2097E1F349
:101240000E940000F9CF615030F02091F100FC01C4
:1012500020830196F8CF289884E68093B101089501
:101260004091AC015091AD012091AA013091AB01A8
:1012700042175307B4F49091E8009570E1F3909110
:10128000E80092FD19C08093F1008091AC0190912B
:10129000AD0101968F739927892B19F48EEF8093F6
:1012A000E8008091AC019091AD0101969093AD0161
:1012B0008093AC0181E0089580E00895EF92FF9261
:1012C0000F931F93CF93DF93F82E192FE62E042F41
:1012D00081E0860F880F0E94300983E00E94300968
:1012E000CF2DD12FEC0EFD2EF11CCE15DF05B9F060
:1012F00007FF13C0FE0184910E943009182F80E07F
:101300000E943009812321968111EFCFDF91CF9187
:101310001F910F91FF90EF9008958881EDCF81E0AC
:10132000F5CF8091D70081608093D70080EA8093C9
:10133000D80089B5806189BD89B5826089BD09B44D
:1013400000FEFDCF61E070E080E090E00E949C0D27
:101350008091D8008F7C80618093D8008091E000DC
:10136000807F8093E0000895CF93DF931F92CDB7E5
:10137000DEB71982CE0101960E94770E0E948F0F70
:10138000BE016F5F7F4F0E940B0F89810F90DF912D
:10139000CF9108952FB7FC012083F8946770609374
:1013A000E9000895CF93DF931F92CDB7DEB7682F82
:1013B000CE0101960E94CA098091F20099819FBFD7
:1013C0000F90DF91CF910895EF92FF920F931F93AB
:1013D000CF93DF931F92CDB7DEB79091B0019923E1
:1013E00079F157FD2DC08A017B01682FCE0101964E
:1013F0000E94CA098091F20090E0081719070CF4C6
:10140000C801282FF70144E6215038F0289840936E
:10141000B1013091F1003193F7CF009739F020916D
:10142000F200211103C02BE62093E80029812FBF91
:101430000F90DF91CF911F910F91FF90EF90089542
:101440008FEF9FEFF5CFCF93DF931F92CDB7DEB72E
:1014500041E050E0BE016F5F7F4F0E94E4090197B9
:1014600031F4898190E00F90DF91CF9108958FEF53
:101470009FEFF9CFCF93DF931F92CDB7DEB7682FE1
:10148000CE0101960E94CA099091E800892F8072CE
:1014900095FF04C09091F20080E4891B99819FBF61
:1014A0000F90DF91CF9108956F927F928F929F92CC
:1014B000AF92BF92CF92DF92EF92FF920F931F9362
:1014C000CF93DF931F92CDB7DEB7A82E6B01B42E5A
:1014D000052F8091B001811112C08FEF9FEF0F9007
:1014E000DF91CF911F910F91FF90EF90DF90CF9000
:1014F000BF90AF909F908F907F906F900895E42E53
:10150000F52E8AEF982E8A2D8072882E9AE3792EF6
:101510008A2D8074682EE114F10409F449C08A2DE3
:101520000E943A0A182F81110AC09A949920A9F2B0
:1015300061E070E080E090E00E949C0DECCF8E15A1
:101540001F0411F00CF01E2D6A2DCE0101960E9491
:10155000CA098091E80085FD03C089818FBFDBCF78
:10156000812F90E0E81AF90A882029F01150A0F0A4
:101570001092F100FBCFF601A7FC0AC0115050F009
:1015800021912093F100FACF24912093F10031961C
:101590001150D0F7C80ED91E8091E80085FF05C014
:1015A000E114F104D1F66620C1F27092E800D5CFC3
:1015B0005D9884E68093B2018B2D902F90CF10928E
:1015C000E9001092AD011092AC019093AB018093B1
:1015D000AA010895DF92EF92FF920F931F93CF938A
:1015E000DF93D82E8A01EB017B01E40EF51ECE15A8
:1015F000DF0559F0D7FE12C0FE0184910E94300928
:1016000021968111F4CF0FEF1FEFC801DF91CF9129
:101610001F910F91FF90EF90DF9008958881EECF9A
:10162000CF93DF93EB012091E80022FFFCCF6C2FDA
:101630000E9423098BEF8093E800CE01DF91CF91C8
:1016400008951F920F920FB60F921124EF92FF92FE
:101650000F931F932F933F934F935F936F937F93BA
:101660008F939F93AF93BF93EF93FF93CF93DF93AA
:10167000CDB7DEB76C97DEBFCDBF1092E900809189
:10168000E80083FF25C068E0CE0145960E9423094B
:1016900082EF8093E8008D8987FF37C09091E80042
:1016A00090FFFCCF982F907609F00DC19E894F894D
:1016B000588D2F89188D91112FC0803851F5809148
:1016C000AF018093F1001092F1008EEF8093E8005B
:1016D0006C960FB6F894DEBF0FBECDBFDF91CF91F1
:1016E000FF91EF91BF91AF919F918F917F916F91FA
:1016F0005F914F913F912F911F910F91FF90EF902C
:101700000F900FBE0F901F9018959EEF9093E800DA
:10171000C9CF1092F100D7CF913059F48111D5CFB4
:101720004130510591F68091AF018D7F8093AF01DB
:10173000CCCF933049F48111C8CF4130510529F6FF
:101740008091AF018260F2CF953041F48091E80042
:1017500080FFFCCF20682093E300B7CF963009F0DC
:1017600084C0EB8CFC8C123039F590E080E00E9454
:10177000DF0A0E94B4091F8299E099831A8391E0DD
:101780009E8390EA98879AEF99872091AC013091D7
:10179000AD01275F3F4F3C832B838D83C7010E94A0
:1017A000DF0A49E050E0BE016F5F7F4F80E00E949A
:1017B000EA0A0E94B40989CFC7010E94DF0A0E9489
:1017C0008F0FBE016B5E7F4F0E94330F009731F089
:1017D0000CF07BCF81E28093EB007ACF1130B1F433
:1017E0008B8D9C8D089719F481E08093A9018091DD
:1017F000A9016EEB70E0882311F06CEA70E0FB0148
:10180000449150E080E80E94EA0A5FCF133011F75C
:101810008F89882339F1823049F440E86CE08CEDFF
:1018200090E00E945E098823A9F24FCF813029F40D
:1018300040E86BE080ED90E0F4CF833059F60E94F1
:101840008F0F8E010F5F1F4FB8010E94520FF801DA
:1018500001900020E9F73197BF01601B710B40E058
:10186000C801DFCF69EE70E0CACF973009F4B2CF7C
:10187000983021F481E08093F10027CF993009F06E
:1018800024CF837009F0A6CFE1E0F1E081E031E000
:1018900096E32191222371F08093E9003093EB00CD
:1018A000DF0111972C912093EC009093ED008F5F56
:1018B000873079F78EE78093EA001092EA008F89EB
:1018C0008093B00102CF8B8D9C8D0E94DF0A898DA1
:1018D000811105C0CE0145960E94820EA4CF0E94C0
:1018E0008F0FBE016B5E7F4F0E94710F9CCF809364
:1018F000E9008091F200882319F08AE38093E800E0
:1019000008951F920F920FB60F9211242F933F93B9
:101910004F935F936F937F938F939F93AF93BF93F7
:10192000CF93EF93FF93C091E1008091E100837F1B
:101930008093E1008093E100C3FF0FC01092E900A3
:1019400081E08093EB001092EC0082E38093ED0045
:101950001092B00188E08093F000C2FF1BC083E0CA
:101960000E94770C8091B201882341F08091B201EE
:1019700081508093B201811101C05D9A8091B101C3
:10198000882341F08091B10181508093B101811190
:1019900001C0289AC4FF23C08091E2008E7E81603E
:1019A0008093E2008091E1008F7E8093E10080913E
:1019B000AE018E7E80618093AE01FF91EF91CF9159
:1019C000BF91AF919F918F917F916F915F914F9157
:1019D0003F912F910F900FBE0F901F901895C0FF51
:1019E000ECCF8091E2008E7E80618093E200809156
:1019F000E1008E7E8093E1008091AE018E7E816059
:101A0000DACF1092B0011092AF011092AE010E9495
:101A10009109E1EEF0E080818E7E80838DE08093FD
:101A2000E200559A209A08950E94A30F0C94DB0FB0
:101A30000E94CD0F882321F00E94B9100C94D70F7B
:101A400008951F920F920FB60F9211242F933F9378
:101A50008F939F93AF93BF938091B4019091B50101
:101A6000A091B601B091B7013091B30123E0230FEB
:101A70002D3758F50196A11DB11D2093B301809318
:101A8000B4019093B501A093B601B093B7018091D2
:101A9000B8019091B901A091BA01B091BB01019632
:101AA000A11DB11D8093B8019093B901A093BA0113
:101AB000B093BB01BF91AF919F918F913F912F91B7
:101AC0000F900FBE0F901F90189526E8230F0296D7
:101AD000A11DB11DD2CF2FB7F8946091B4017091C0
:101AE000B5018091B6019091B7012FBF08953FB71E
:101AF000F8948091B8019091B901A091BA01B09188
:101B0000BB0126B5A89B05C02F3F19F00196A11D6A
:101B1000B11D3FBFBA2FA92F982F8827BC01CD0137
:101B2000620F711D811D911D42E0660F771F881F96
:101B3000991F4A95D1F70895CF92DF92EF92FF92C5
:101B4000CF93DF936B017C010E94770DEB01C114F1
:101B5000D104E104F10439F4DF91CF91FF90EF90CB
:101B6000DF90CF9008950E9481120E94770D6C1B28
:101B70007D0B683E734058F381E0C81AD108E10834
:101B8000F108C851DC4FE3CF789484B5826084BDFE
:101B900084B5816084BD85B5826085BD85B5816071
:101BA00085BDEEE6F0E0808181608083E1E8F0E0D1
:101BB0001082808182608083808181608083E0E800
:101BC000F0E0808181608083E1E9F0E080818260E3
:101BD0008083808181608083E0E9F0E080818160A2
:101BE0008083E1ECF0E0808184608083808182608A
:101BF0008083808181608083E3ECF0E0808181607C
:101C00008083E0ECF0E0808182608083E2ECF0E0B1
:101C1000808181608083EAE7F0E080818460808356
:101C20008081826080838081816080838081806800
:101C300080830895CF93DF931F92CDB7DEB769837A
:101C4000DC01ED91FC910280F381E02D41E050E058
:101C5000BE016F5F7F4F09950F90DF91CF9108957F
:101C6000CF93DF93EC018C859D8597FF05C082E0C3
:101C70000E94230A9D878C878C859D85DF91CF915B
:101C8000089583E00C94770CFC018485958597FD7D
:101C900006C082E00E94D20990E00196089582E099
:101CA0000E94D20990E00895FC018485958597FDF6
:101CB00005C02FEF3FEF35872487089582E00C940D
:101CC000230ACF93DF93EC0180911201882331F036
:101CD00083E00E94540A1816190634F081E090E05F
:101CE0009B838A8380E090E0DF91CF910895FC018F
:101CF00090819E5F908342E450E06DEE70E080E85A
:101D00000C94EA0AFC0191818081813A61F491325C
:101D100009F063C047E050E06BE071E080E00E94B2
:101D2000EA0A81E00895813209F057C0933269F4DC
:101D300082819381B0E0A0E0809307019093080135
:101D4000A0930901B0930A01ECCF903209F047C08B
:101D500067E070E08BE091E00E94100B80910B0136
:101D600090910C01A0910D01B0910E01803B944027
:101D7000A105B105E9F48091120180FD19C080919F
:101D80000008909101089093FF0A8093FE0A87E76C
:101D900097E7909301088093000888E19BE00FB6D5
:101DA000F894A895809360000FBE90936000B9CF1F
:101DB0000FB6F894A89580916000886180936000C8
:101DC000109260000FBEA8958091FE0A9091FF0AC4
:101DD0009093010880930008A4CF80E00895923288
:101DE00009F09FCF828180931201B8CFECEBF1E034
:101DF0001382128288EE93E0A0E0B0E084839583A2
:101E0000A683B78381E491E0918380838FEF9FEF76
:101E1000958784870895EF92FF920F931F93CF9336
:101E2000DF937B01FC01C281D38110E000E02097A9
:101E300091F0E881F9810280F381E02DB701CE01B4
:101E4000099597FD06C0080F191F0884D985C02D74
:101E5000EECF0FEF1FEFC801DF91CF911F910F91D0
:101E6000FF90EF9008950F931F93CF93DF938B0113
:101E7000FC01C281D381209771F0E881F98104804F
:101E8000F581E02DB801CE010995009731F4088461
:101E9000D985C02DF0CF90E080E0DF91CF911F91E8
:101EA0000F9108950F931F93CF93DF938B01FC0144
:101EB000C281D381209771F0E881F9810680F78192
:101EC000E02DB801CE010995080F111D0884D985B0
:101ED000C02DF0CFF8011082DF91CF911F910F91AB
:101EE00008950F931F93CF93DF938B01FC01C28161
:101EF000D381209771F0E881F9810190F081E02D84
:101F0000B801CE010995811105C00884D985C02D7D
:101F1000F0CF80E0DF91CF911F910F9108958091D4
:101F20000C0281110DC082E08093140284E0809342
:101F30001502109217021092160281E080930C0293
:101F400084E192E00895E4E6F0E08081806480839B
:101F500080818160808380818068808380818260CD
:101F60008083E5E6F0E08081816080830E94D9165D
:101F70000E942A150E9473180E94AE140E949615A2
:101F80000C940E1683B7817F83BF83B7816083BFB4
:101F9000889583B78E7F83BF0895CF930E943B15AA
:101FA000C82F81110E94B5158C2FCF9108950E94E2
:101FB0005B170C94D31742E050E060E088E192E0B8
:101FC0000C9482120E94DD100E94E01A0E94B0114F
:101FD000E8E1F2E081E08083118208950E94E4103C
:101FE0000E9415110E947611882379F00E94CC116D
:101FF0000E94D11C0E94161B0E94EB1A0E948E1F89
:1020000083E0809318021092190208950E94DC1157
:102010000E94D81C0E94D91B0E9475120E94881F22
:102020000E94AA1B809119028F5F809319028F3F33
:1020300011F40E94B81F0E947E12882331F084E0C0
:10204000809318021092190208950E94AE1F8823EF
:10205000D9F30E94011C8823B9F30E94AB1F8A3078
:1020600070F70E948E1F83E0EBCFCF930E94DC11AC
:102070000E94D91B0E9475120E94AA1B809119020E
:1020800062E10E94222280FD23C00E94AB1F1F92AA
:102090008F938DE491E09F938F9384E08F93C7E0BB
:1020A000CF930E948A170E94C7119F938F9386E552
:1020B00091E09F938F9385E08F93CF930E948A172F
:1020C0008DB79EB70C960FB6F8949EBF0FBE8DBF0E
:1020D000809119028F5F809319028E3728F082E079
:1020E0008093180210921902CF9108950E94DC117A
:1020F0000E94D81C0E94D91B0E9475120E94881F42
:102100000E94AA1B0E94AB1F8A3080F18FE591E0EC
:102110009F938F9384E08F9387E08F930E948A1719
:102120000F900F900F900F900E94C7119F938F9365
:1021300086E591E09F938F9385E08F9387E08F935F
:102140000E948A17809119028F5F809319020F9065
:102150000F900F900F900F900F908A3F30F00E94D9
:1021600079111092180210921902089589E691E0EF
:10217000CFCF809118028230E1F088F48823A9F053
:102180008130A9F01F928F9383E791E09F938F9303
:102190000E9487140F900F900F900F900895833036
:1021A00051F0843079F70C9476100C94E20F0C9473
:1021B000EE0F0C9406100C94351042E050E060E0F5
:1021C0008AE192E00C948212CF930E94FF1587FF60
:1021D00007C090911A02992319F0915090931A0216
:1021E00084FF07C090911A02923018F49F5F909379
:1021F0001A0283FF07C0C0911A02C13049F020F0D3
:10220000C23061F0CF91089581E080931B02FACF34
:102210000E94101B8C27CF910C940A1B0E94131B49
:1022200091E08927CF910C940D1B4FE251E060E0C3
:1022300082E20E94DE1760911A026D5F4EE386E033
:102240000E94691788E891E09F938F9383E08F93B2
:1022500088E08F930E948A170E94101B0F900F90A6
:102260000F900F9081113CC084E891E09F938F9371
:102270008EE891E09F938F9384E08F9388E08F9313
:102280000E948A170E94131B0F900F900F900F90BF
:102290000F900F90811127C084E891E09F938F9356
:1022A00085E991E09F938F9385E08F9388E08F93EA
:1022B0000E948A170E94B9119F938F9386E591E03F
:1022C0009F938F9387E08F931F920E948A178DB7F9
:1022D0009EB70C960FB6F8949EBF0FBE8DBF0895A3
:1022E00081E891E0C3CF81E891E0D8CF80911B02D3
:1022F000089580911E0290911F0220911C0230913E
:102300001D0282179307A0F090931D0280931C0278
:1023100090E080E00E94B51484E40E94F21480E50D
:102320000E94F21480911C0290911D020C940415DD
:10233000089510921D0210921C0290E080E00E940D
:10234000B5140E94BA14843451F40E94BA14803532
:1023500031F40E94CA1490931D0280931C020895C8
:1023600044E050E060E08CE192E00E9482120C9424
:10237000991180911C0290911D020895ECE1F2E008
:1023800022813381820F931F9383828308958091EA
:102390001E0290911F02089546E050E060E080E246
:1023A00092E00E948212E0E2F2E080E092E3918308
:1023B0008083138212820895CF930E94381586FB82
:1023C000CC27C0F961E0C62780912302845F8C0F7F
:1023D0000E94B917909124026091230280912102FA
:1023E000911106C06C0F41EE51E0CF910C94DE17B5
:1023F000E091250291E09E0F90932502F0E093E09A
:10240000F695E7959A95E1F7EE70FF27ED5EFE4FA2
:10241000408151816C0F0E94DE1780912502803728
:1024200018F080E780932502CF9108950E94FC1553
:1024300086FF0EC02091200230912102211593E6E3
:10244000390734F428533F4F309321022093200260
:1024500085FF0EC08091200290912102811522E01B
:10246000920734F0885C91099093210280932002B6
:1024700060912302809121022DE048E18C5F0E944F
:10248000891C8093240208950F931F93CF93DF93A9
:102490000E94FF1583FD07C082FD21C0DF91CF910F
:1024A0001F910F910895C0912002D0912102D65022
:1024B00000912202109123020E9438158074800F2F
:1024C000912F911D60E071E0892B11F070E060E0C8
:1024D000CE01DF91CF911F910F910C946B1BC09196
:1024E0002002D0912102D45EE3CF80912402811199
:1024F00004C00E9416120C94441208958091240284
:10250000089508954115510549F01416150634F43F
:10251000FC016083415051090196F7CF08950F9354
:102520001F93CF93DF938B01252F0E942E22FB0157
:10253000EC011E161F063CF4522FB801CF010E9479
:102540008F12482F292FCA30D1055CF0C95A842F29
:10255000922FFC01C193CF01DF91CF911F910F9179
:102560000895C05DF4CFCF92DF92EF92FF920F9368
:102570001F93CF93DF936B01FA01102FFE2C0E9463
:102580002E22DB01EC011A161B061CF0223031054D
:1025900054F021503109E12C012FAF01B601CD01DA
:1025A0000E94B312FC01CF010196209721F4F11093
:1025B00010C0108305C0CA30D1055CF0C95AC08371
:1025C000DF91CF911F910F91FF90EF90DF90CF900F
:1025D0000895C05DF4CF8F929F92AF92BF92CF9239
:1025E000EF920F931F93CF93DF934B015C01D02F9A
:1025F0001E2DCC2D80E188169104A104B10418F49D
:10260000223031058CF021503109CC2EE12C0D2FD8
:10261000C501B401E4E09695879577956795EA95AD
:10262000D1F70E94EB12AC01EFE08E229924CA018F
:1026300001968114910429F4111116C0FA01D08376
:1026400008C0FAE08F16910478F0CA508C0EFA0197
:102650008082DF91CF911F910F91EF90CF90BF902B
:10266000AF909F908F90089520E3820EF0CFCF928D
:10267000DF92EF92FF92CF936B017C01C22F80E13A
:10268000C816D104E104F10458F0C70134E096956E
:102690008795779567953A95D1F70E943713AC01E6
:1026A0008FE0C822DD248AE0C816D10458F0CA5051
:1026B000CC0EFA01C192CF01CF91FF90EF90DF9045
:1026C000CF90089580E3C80EF4CFDC01FB019D910B
:1026D000992311F09193FBCFCF0108952F923F9250
:1026E0004F925F926F927F928F929F92AF92BF9222
:1026F000CF92EF92FF920F931F93CF93DF9300D06F
:1027000000D0CDB7DEB79A838983DB01FA0110E2EE
:10271000712C612C3DE2F32E2C91211119C0A9815D
:10272000BA811C920F900F900F900F90DF91CF9174
:102730001F910F91FF90EF90CF90BF90AF909F901F
:102740008F907F906F905F904F903F902F90089563
:10275000253269F0AD014F5F5F4F5C834B83A981E8
:10276000BA812C935F011196BA83A98395C0119603
:102770002C911197203329F1AD014E5F5F4F5C839F
:102780004B8330ED320F3A3008F0B0C0622E220F8A
:10279000770890E3691A71088B809C80AFEF8A1AE2
:1027A0009A0AAB81BC812C912C3609F45DC08CF463
:1027B000233609F490C0243639F1E981FA81108278
:1027C000B1CFCD0103969C838B8310E312962C919D
:1027D000D8CF233709F472C0283779F79C828B82CF
:1027E00021E0DF016D917D915D0190E080E0222389
:1027F000A9F121E6C22EEE24E394012F9301498131
:102800005A810E94EB1220C09C828B8221E05F01E2
:10281000B2E0AB0EB11C8081918197FF09C0919508
:1028200081959109E981FA81F0823196FA83E983F1
:10283000222369F0EE24E394012F930149815A8108
:102840006AE070E00E94B3129A83898325C04981AF
:102850005A816AE070E00E948F12F6CF21E649812A
:102860005A810E943713F0CF5F01B4E0AB0EB11C68
:10287000208031804280538081E6C82EEE24E3948C
:10288000012F930149815A81C201B1010E94EB12CB
:102890009A8389839C828B82F501AB81BC813CCF7A
:1028A0005F0144E0A40EB11C20803180428053803F
:1028B00021E649815A81C201B101D3CF9C828B822A
:1028C0005F0152E0A50EB11C69817A8180819181FE
:1028D0000E946513B9CF9C828B825F0182E0A80EB3
:1028E000B11C2081A981BA812C933DCF2C36C1F235
:1028F0003CF4233691F3243609F05FCF20E087CFF4
:102900002337F1F2283709F058CF20E06ACFCF9370
:10291000DF93CDB7DEB7A8970FB6F894DEBF0FBE32
:10292000CDBFAE01435D5F4FFA0161917191AF017F
:10293000CE0101960E946E138E010F5F1F4FF12C86
:10294000F80141918F01442331F060E08F2D0E9406
:102950006917F394F5CF0E945B17FFCF42E050E078
:1029600060E086E292E00C948212909327028093BA
:1029700026020895F999FECF8091260290912702B0
:102980009C012F5F3F4F30932702209326024096F1
:102990000C94B7220F931F93CF93DF93F999FECF37
:1029A000C0912602D0912702CE0101969093270272
:1029B000809326020F960E94B722082F10E0F99903
:1029C000FECFCE01029690932702809326020F96A7
:1029D0000E94B7229801382BC901DF91CF911F9136
:1029E0000F910895F999FECF209126023091270288
:1029F000A9014F5F5F4F5093270240932602682F33
:102A0000C90140960C94BF22CF93C92FF999FECFEC
:102A10002091260230912702A9014F5F5F4F50930A
:102A2000270240932602682FC90140960E94BF22C8
:102A3000F999FECF80912602909127029C012F5F89
:102A40003F4F30932702209326026C2F4096CF9160
:102A50000C94BF2241E150E060E088E292E00E94E5
:102A60008212E8E2F2E08CE3808380E184870895BB
:102A7000809138020895CF92DF92EF92FF920F93E8
:102A80001F930E946B0D20913502222391F020911B
:102A90002F02C62EC21AC092330220912902309111
:102AA0002A022F5F3F4F30932A022093290210926F
:102AB000350200912B0210912C0220912D023091B1
:102AC0002E02601771078207930738F4061B023045
:102AD00010F00E94C20F80E022C0209138022F5FC8
:102AE00020933802209134026B017C01C20ED11C6C
:102AF000E11CF11C9701860100932B0210932C021C
:102B000020932D0230932E0260932F027093300297
:102B1000809331029093320281E0809335021F91BD
:102B20000F91FF90EF90DF90CF90089545E050E037
:102B300060E089E392E00E94821262E084E10E94F8
:102B40000E2062E083E10E940E2062E082E10E949A
:102B50000E2062E085E10E940E2062E087E00E9484
:102B60000E2062E088E00C940E204FB18CB123B1AE
:102B700090E08095909533E0959587953A95E1F7AB
:102B80008870992730E020953095359527953595B3
:102B9000279524703327822B942F9095907F892B33
:102BA0003091390290913A029827232F2095922351
:102BB00090933A02282F2095232320933B02809361
:102BC0003902907F21F490913D0291110FC08093C2
:102BD0003C029AE090933D02807F59F080913D0243
:102BE000882349F0815080933D02089510923C0261
:102BF000F3CF10923D02089580913902089580919B
:102C00003A020895E82FF0E0E454FD4F84910895CE
:102C1000AB01BC018EE392E00C9484216BE972E17C
:102C20008CE796EF0C9408164F925F926F927F920A
:102C30008F929F92AF92BF92CF92DF92EF92FF92CC
:102C40000F931F93EEE3F2E0048515852685378503
:102C5000C480D580E680F780408451846284738488
:102C600080809180A280B380E894B7F8D701C60134
:102C700084259525A625B72588259925AA25BB2530
:102C8000AC01BD01440F551F661F771F4C015D014C
:102C900084269526A626B726D901C801B695A795FC
:102CA00097958795082719272A273B27082519254F
:102CB0002A253B25C082D182E282F38204871587D0
:102CC00026873787B901A8014170552766277727DE
:102CD00070956095509541955F4F6F4F7F4F8089FC
:102CE0009189A289B38984239523A623B7238425B8
:102CF0009525A625B72584839583A683B7838489E4
:102D00009589A689B789482359236A237B23D9014A
:102D1000C801072E7AE0880F991FAA1FBB1F7A955A
:102D2000D1F7702D88259925AA25BB2584279527BD
:102D3000A627B72780879187A287B387892F9A2FE5
:102D4000AB2FBB278C0D9D1DAE1DBF1D082719275E
:102D50002A273B2781709927AA27BB27B095A095E2
:102D6000909581959F4FAF4FBF4FC08CD18CE28C17
:102D7000F38CBC01CD016C217D218E219F21602728
:102D80007127822793271F910F91FF90EF90DF907B
:102D9000CF90BF90AF909F908F907F906F905F90FB
:102DA0004F9008958EBD00000DB407FEFDCF8EB587
:102DB0000895CF92DF92EF92FF920F931F93CF93DC
:102DC000DF9340E054E060E08AE592E00E948212E6
:102DD0000E9478208CB58C7F8CBD8DB581608DBDB7
:102DE00061E084E00E940E2061E08CE00E940E20F1
:102DF00061E086E00E940E2061E086E00E944A20A9
:102E000061E070E080E090E00E949C0D60E086E070
:102E10000E944A206AE070E080E090E00E949C0DF1
:102E200061E086E00E944A20E9E9F1E1E491F0E006
:102E3000EE0FFF1FE555FE4EC591D491E1E9F1E19A
:102E4000E491F0E0EE0FFF1FE555FE4EE590F490A3
:102E5000EBE7F1E11491E3E7F1E104918881812B43
:102E60008883D7019C91802F809589238C938881BA
:102E70001095812388832CEBC22E23E0D22EF601FD
:102E800084910E94D216FFEFCF1ADF0A8DEDC8168B
:102E900083E0D806A1F7D701EC91E02BEC93E88111
:102EA0001E231883DF91CF911F910F91FF90EF9018
:102EB000DF90CF900895CF93DF93CAE5D2E0899158
:102EC0000E94D21686E0CA35D807C9F7DF91CF91A4
:102ED00008958531F0F46830E0F495E04902A001EE
:102EE000112490E8699FD001112496E0899FA00DDC
:102EF000B11D1124A65ABD4F90E080E043525C4FB3
:102F0000FA01E80FF91FE491ED93019685309105E0
:102F1000B9F708951F93CF93DF93CDB7DEB7A89786
:102F20000FB6F894DEBF0FBECDBFAE014E5C5F4F53
:102F300068A979A9CE0101960E946E1310E08EA5B2
:102F4000810FE1E0F0E0EC0FFD1FE10FF11D40818A
:102F5000442329F06FA50E9469171F5FF0CFA89640
:102F60000FB6F894DEBF0FBECDBFDF91CF911F919A
:102F70000895982F977021E001C0220F9A95EAF7E3
:102F800086958695869590E8899FF0011124E65AEA
:102F9000FD4F80E09191DF011197922B9C938F5F01
:102FA0008038C1F708958AE592E0FC01002411926F
:102FB0001192119211920394D1F708952F923F929A
:102FC0004F925F926F927F928F929F92AF92BF9239
:102FD000CF92DF92EF92FF920F931F93CF93DF93E5
:102FE000FA01B490DA0112964F5F5F4FFA016490D4
:102FF000062E000C770B10E0AA24A394082E000CD8
:10300000990B161509F44AC09B0143E035952795A5
:103010004A95E1F73695322F222737952795FB0100
:10302000E770FF270A2D01C0000FEA95EAF7FD01BE
:1030300050E01901280E391EDF015B1558F5603488
:10304000710540F58490B0E0A0E020E8922EC52FF5
:10305000D0E06C01CC0EDD1E2E01420C531C76011B
:10306000EA0EFB1E20E8E216F10460F4F82CF920C9
:1030700049F07201EA0EFB1EE701C65ADD4F788067
:10308000702A788296941196A830B10541F7585F5E
:103090003196D2CF1F5F6F5F7F4FB3CFDF91CF915C
:1030A0001F910F91FF90EF90DF90CF90BF90AF9066
:1030B0009F908F907F906F905F904F903F902F9058
:1030C0000895E1E7F0E080818D7F8083AAE5B6E096
:1030D0005496ED91FC915597908156968C918095E0
:1030E000892380830895CF93DF934AE150E060E025
:1030F0008AE596E00E94821261E085E00E940E203F
:10310000E2E9F1E1E491F0E0EE0FFF1FE555FE4E3C
:1031100085919491CAE5D6E09D8B8C8BE4E7F1E133
:10312000E491EE8B61E08DE00E940E20EAE9F1E18E
:10313000E491F0E0EE0FFF1FE555FE4E859194916E
:10314000988F8F8BECE7F1E1E491E98F109290007A
:10315000A1E9B0E01C9210928000E1E8F0E010825A
:103160008C9188608C938C9181608C938081886035
:103170008083808181608083E5E6F0E08081877FC5
:103180008083E4E6F0E08081877F8083DF91CF91C8
:10319000089590E0FC01E65AF94F1182FC01EE0F10
:1031A000FF1FE80FF91FE65AF94FA489B5899C91D2
:1031B0008689809589238C930895E1E9F0E08081E8
:1031C000887F816080838FEF9FEF90939900809339
:1031D0009800E1E7F0E08081826080830895EAE56D
:1031E000F6E0948783879687858781E090E0A0E06A
:1031F000B0E083839483A583B683178210861186FB
:1032000012861182128280830C94DD1841155105BB
:1032100091E069077105F0F096E07695679557950E
:1032200047959A95D1F793E0415051096109710989
:10323000811112C080919100887F892B8093910029
:103240005093990040939800809171008260809320
:103250007100089591E0E8CF80918100887F892BEB
:1032600080938100509389004093880080916F0083
:10327000826080936F000895CF93C82F813021F42E
:1032800080916906811126C0E62FF0E0EE0FFF1F46
:10329000E352F74F2591349150E040E0C11108C04E
:1032A0002093610630936206409363065093640650
:1032B000EC2FF0E0E65AF94F81E0818360E074E2A0
:1032C00084EF90E00E946422BA01A9018C2FCF9173
:1032D0000C940619CF910895CF93DF93EC01809160
:1032E000690681112DC081E080936906DE01AA0F75
:1032F000BB1F9A01AB010E94892228EE33E040E017
:1033000050E00E9442222115310541055105C1F0CE
:1033100020936A0630936B0640936C0650936D06BB
:103320009E0150E040E060E072E18AE790E00E9498
:103330006422BA01A90181E0DF91CF910C940619B2
:10334000DF91CF910895811102C00C946118809192
:103350006F008D7F80936F00E0917106F09172068F
:1033600090818091730680958923808308950E94BF
:10337000611881E00E94A31910925A060895CF9314
:10338000DF93CCE9D1E0E0916706F0916806BF01D8
:103390006F5F7F4F7093680660936706A4919A2FC2
:1033A000907F8A2F8F70903909F440C0B8F590381B
:1033B00009F446C097FD50C03296F0936806E0933A
:1033C0006706FB016491BA2FA62F20916106309108
:1033D000620640916306509164060E9489226C50F7
:1033E0007E4F8F4F9F4F28EE33E040E050E00E9429
:1033F0004222211531054105510509F042C081E005
:1034000090E0A0E0B0E080935D0690935E06A0930C
:103410005F06B0936006DF91CF910895903E99F0DA
:10342000903F41F6DF91CF910C94B7193296F0930B
:103430006806E0936706FB0164910E943C19A3CFE4
:103440000E94C918A0CF809165069091660690935E
:1034500068068093670697CF80916506909166060F
:10346000681B790B7F936F931F92AF93DF93CF937A
:103470000E9487140F900F900F900F900F900F9055
:1034800082CF20935D0630935E0640935F06509393
:103490006006C1CF81E00E94A319109269060895C9
:1034A0001F920F920FB60F9211242F933F934F93B9
:1034B0005F936F937F938F939F93AF93BF93EF939C
:1034C000FF9380915B06882349F0E0916E06F091AE
:1034D0006F068081909170068927808380915D06B8
:1034E00090915E06A0915F06B09160060197A109D8
:1034F000B10980935D0690935E06A0935F06B0933A
:103500006006892B8A2B8B2B11F40E94BF19FF9127
:10351000EF91BF91AF919F918F917F916F915F914B
:103520004F913F912F910F900FBE0F901F901895C4
:103530001F920F920FB60F9211242F933F934F9328
:103540005F936F937F938F939F93AF93BF93EF930B
:10355000FF93E0917106F09172068081909173065D
:1035600089278083809169068823C9F080916A0643
:1035700090916B06A0916C06B0916D060197A10920
:10358000B10980936A0690936B06A0936C06B09382
:103590006D06892B8A2B8B2B11F40E944A1AFF91FE
:1035A000EF91BF91AF919F918F917F916F915F91BB
:1035B0004F913F912F910F900FBE0F901F90189534
:1035C00042E050E060E084E796E00E94821281E0F1
:1035D00080937506089580917406882321F08DEDFF
:1035E00099E00C94EF1808952091750621110C9420
:1035F0006C19089544E650E060E070E08AE491E0E0
:103600000C94F41A44E650E060E070E08FEA90E039
:103610000C94F41A809374060895809375060895A7
:1036200080917406089580917506089542E050E0F7
:1036300060E085ED96E00E94821249E150E060E092
:103640008CEB96E00E94821246E450E060E086E750
:1036500096E00C9482122091D506ECEBF6E0808186
:10366000882351F083819481889694838383811584
:10367000904414F021501082359686E0E53DF8071D
:1036800071F72093D50608950F931F93CF93DF937F
:103690000E94381586FBCC27C0F981E0C8270CEBC7
:1036A00016E0D0E0CC0FDD1FC75DDE4FF801808152
:1036B000882331F048815981648182810E94DE171C
:1036C0000B5F1F4FF6E0053D1F0781F7DF91CF919C
:1036D0001F910F910895ECEBF6E030E020E040817F
:1036E000411115C045E0429FF001439FF00D1124A8
:1036F000E454F94F928381837483638381E08083F0
:103700008091D5068F5F8093D5060C94FA1A2F5FAF
:103710003F4F35962530310511F708952091D60693
:10372000E6E7F6E08081882369F083819481458112
:103730005681841B950B9483838381159A4014F4DE
:1037400021501082379686E0EC3BF80759F720931A
:10375000D60608950E942B1B0C948E1B0F931F936B
:10376000CF93DF930E94381590E024E095958795DC
:103770002A95E1F763E070E00E942E22C6E7D6E0CA
:103780008C01000F111F0D5D1E4F8881882339F0B9
:10379000F801408151816C818A810E94DE17279651
:1037A000F6E0CC3BDF0789F7DF91CF911F910F91B6
:1037B00008950E94441B0C94AE1BE6E7F6E030E04F
:1037C00020E0A081A11116C0A7E0A29FF001A39F55
:1037D000F00D1124EA58F94F928381837483638337
:1037E0005683458381E080838091D6068F5F8093E6
:1037F000D60608952F5F3F4F37962A30310509F7D7
:10380000089581E09091D606911180E00895AF92DD
:10381000CF92EF92FF920F931F93062E000C770B1F
:103820000E2C000CFF08F701EA0DF11DA7FCFA951C
:103830006E177F07F4F4620F711D27FD7A95E61667
:10384000F706BCF4082E000C990B002E000C110B8F
:1038500098012C0D311DC7FC3A95821793074CF443
:103860009C01240F311D47FD3A9581E00217130793
:103870000CF080E01F910F91FF90EF90CF90AF90F0
:1038800008958F929F92AF92BF92CF92DF92EF9264
:10389000FF920F931F93CF93DF93182FF62ED42E02
:1038A000B22ECCEBD6E0912C812C8881882339F183
:1038B0006C81AB2CCD2CEF2C012F27E046E08A81C8
:1038C0000E94071C8823D9F09091D50691509093BF
:1038D000D50695E0989DF001999DF00D1124E454D2
:1038E000F94F1082DF91CF911F910F91FF90EF90D0
:1038F000DF90CF90BF90AF909F908F9008958FEF03
:10390000881A980A259685E08816910471F680E059
:10391000E9CF8F929F92AF92BF92CF92DF92EF92B8
:10392000FF920F931F93CF93DF93182FF62ED42E71
:10393000B22EC6E7D6E0912C812C8881882339F1FC
:103940006C81AB2CCD2CEF2C012F24E044E08A813C
:103950000E94071C8823D9F09091D606915090932D
:10396000D60697E0989DF001999DF00D1124EA5834
:10397000F94F1082DF91CF911F910F91FF90EF903F
:10398000DF90CF90BF90AF909F908F9008958FEF72
:10399000881A980A27968AE08816910471F680E0C2
:1039A000E9CF4DE550E060E087ED96E00C9482129F
:1039B000CF93DF93C7EDD6E08D81882361F0EE8150
:1039C000F0E0EE0FFF1FE35DFE4F408151816C85FB
:1039D00088850E94DE172B9687E0CF32D80761F7E3
:1039E000DF91CF910895CF93DF93C7EDD6E08D811E
:1039F000882349F18E818650823070F48F8591E062
:103A0000980F9F870E9402162B853C85280F311D39
:103A100087FD3A953C872B878F81988529853A8544
:103A2000820F931F98878F83892F990F990B9C0181
:103A3000285E3F4F2839310570F01D828091DB06EA
:103A400081508093DB062B9687E0CF32D80779F63A
:103A5000DF91CF9108956C852E854D850E94411C84
:103A6000882389F31D828091DB0681508093DB06D9
:103A70008E8190E09595879501960E94BE110E94D7
:103A8000021BE1CFCF93DF93C7EDD6E08D81882372
:103A900099F18E818650823078F10E94141620911F
:103AA000DA0648E0249F90011124032E000C440BF9
:103AB000550B0E944222672B682B692BE9F4409139
:103AC000D70650E08E8184508230F0F4465F5F4F1D
:103AD000440F551F8D85869590E0982F88272F815C
:103AE0003885820F931F9C0135502115364720F4ED
:103AF0006B857C850E94DD1B2B9687E0CF32D80733
:103B000029F6DF91CF9108954C5E5F4FE1CFDF92B0
:103B1000EF92FF920F931F93CF93DF938091D8067C
:103B2000882329F18091D906882321F08150809340
:103B3000D9061DC00E9414162091DA0630E050E02C
:103B400040E00E944222672B682B692B81F4E7ED4D
:103B5000F6E0D0E0C0E085818E010F5F1F4F882323
:103B600009F4B1C1E8013B9608301105A1F7DF91D6
:103B7000CF911F910F91FF90EF90DF9008958BE010
:103B8000D82EDC9EC001DD9E900D11249C0129528F
:103B9000394F7901F901168280E09AEE9087878388
:103BA0000E941416D09EF001D19EF00D1124E9520E
:103BB000F94FDC01CB018F719927AA27BB274A96C1
:103BC000A11DB11DBA2FA92F982F8827918380831B
:103BD0008091D706FAE08F9FC0011124C296F701A9
:103BE0009287818787E1858786E08687DBC0BBE097
:103BF000DB2EDC9EC001DD9E900D11249C0129521C
:103C0000394F790181E0F901868380E09FE7908751
:103C100087830E941416D09EF001D19EF00D1124CE
:103C2000E952F94FDC01CB018F719927AA27BB27F5
:103C30004A96A11DB11DBA2FA92F982F88279183CD
:103C400080832091D70636EF3203C0011124C2973A
:103C5000C6CFFBE0DF2EDC9EC001DD9E900D11245F
:103C60009C012952394F790182E0F901868380E075
:103C700099EE908787830E941416D09E9001D19E62
:103C8000300D112489010952194F2CE030E040E039
:103C900050E00E944222625D7F4F8F4F9F4F982FCE
:103CA000872F762F6627F801718360838091D7066E
:103CB000FAE08F9FC0011124C296F7019287818795
:103CC00088E191CF5BE0D52EDC9EC001DD9E900D9A
:103CD00011249C012952394F790183E0F90186832F
:103CE00080E09FE7908787830E941416D09E900102
:103CF000D19E300D112489010952194F2CE030E07A
:103D000040E050E00E944222625D7F4F8F4F9F4F04
:103D1000982F872F762F6627F80171836083209173
:103D2000D70636EF3203C0011124C297C6CF3BE05D
:103D3000D32EDC9EC001DD9E900D11249C012952E2
:103D4000394F790184E0F901868380E093EF908711
:103D500087830E941416D09E9001D19E300D1124AD
:103D600089010952194F25E030E040E050E00E94FF
:103D70004222675E7F4F8F4F9F4F982F872F762F5E
:103D80006627F801718360838091D7062AE0829FBD
:103D9000C001112484529F4FF701928781878EE0E2
:103DA000858726878BE08C9FF0018D9FF00D112475
:103DB000E952F94F81E085838091DB068F5F809324
:103DC000DB068091D80681508093D80685E0AFCE7F
:103DD0008BE0D82EDC9EC001DD9E900D11249C014D
:103DE0002952394F790185E0F901868380E09FE708
:103DF000908787830E941416D09E9001D19E300D2B
:103E0000112489010952194F25E030E040E050E0CB
:103E10000E944222675E7F4F8F4F9F4F982F872FC0
:103E2000762F6627F801718360832091D70636EFDD
:103E30003203C00111248C5D9109F70192878187BB
:103E40008EE085878AE0D1CE8BE08C9FF0018D9F3C
:103E5000F00D1124E952F94F96E0968320E034EFFB
:103E600030872783809FD001819FB00D1124A952F4
:103E7000B94F80E094E18D939C9388E290E0928723
:103E800081878DE085878CE0868717868BCF8BE0D6
:103E90008C9FF0018D9FF00D1124E952F94F97E0AE
:103EA000968320E03FE730872783809FD001819F62
:103EB000B00D1124A952B94F80E094E18D939C93E9
:103EC00088ED9FEFDCCF0E94141622E130E040E045
:103ED00050E00E944222DC01CB010597A109B10903
:103EE0008D309105A105B10508F049CEFC01E558DA
:103EF000F04E0C948322F71DF71DF71DF71DF71DDB
:103F0000291E291E621E621E971EE81E241F471FBF
:103F10000E94F31C0E94421D0C94871D8091D706BD
:103F20008F5F8093D706982F990F990F965F909384
:103F3000D80626EF829F802D11248A568093DA06B8
:103F4000953618F094E69093D806823318F482E3FD
:103F50008093DA0608958091D70608958091D80657
:103F6000811104C081E09091DB06911180E00895F9
:103F70008091DA0684518E3118F08093DA06089524
:103F80008EE1FBCF81508F3008F047C0E82FF0E082
:103F9000E453F04E0C948322E91FED1FDB1FE11F59
:103FA000E51F0D200D200D20F01FF61FFA1FFE1F2C
:103FB00004200D200820809180008F77809380005E
:103FC0000895809180008F7DF9CF80918000877F58
:103FD000F5CF84B58F7784BD089584B58F7DFBCFF1
:103FE000809190008F778093900008958091900049
:103FF0008F7DF9CF80919000877FF5CF8091C000B1
:104000008F778093C00008958091C0008F7DF9CF95
:104010008091C200877F8093C2000895CF93DF9381
:1040200090E0FC01E159FE4E249183579E4EFC0125
:1040300084918823C9F090E0880F991FFC01E75410
:10404000FE4EA591B491FC01E555FE4EC591D4916B
:1040500061110DC09FB7F8948C91209582238C93A9
:104060008881282328839FBFDF91CF9108956230F4
:1040700051F49FB7F8943C91822F809583238C93C1
:10408000E8812E2BEFCF8FB7F894EC912E2B2C9349
:104090008FBFEACF1F93CF93DF93282F30E0F90132
:1040A000EF5AFE4E8491F901E159FE4ED491F90187
:1040B000E357FE4EC491CC23A9F0162F81110E9424
:1040C000C21FEC2FF0E0EE0FFF1FE555FE4EA5914D
:1040D000B4918FB7F894EC91111108C0D095DE23FC
:1040E000DC938FBFDF91CF911F910895DE2BF8CF26
:1040F000CF93CFB7F89480913407811127C0EEE9B0
:10410000F1E18491E0E8F1E19491E82FF0E0EE0F25
:10411000FF1FE754FE4EA591B491EC91E92321F4E1
:1041200061E081E10E944A2061E081E10E940E206D
:104130008CB580618CBD8CB580648CBD61E08FE0F6
:104140000E940E2061E080E10E940E2080913407E1
:104150008F5F80933407CFBFCF9108954F925F92C6
:104160006F927F928F929F92AF92BF92CF92DF9287
:10417000EF92FF920F931F93FC0144845584668451
:10418000778484809580A680B780C084D184E284BF
:10419000F38480819181A281B381BF77B501A401AD
:1041A0004C255D256E257F2584279527A627B727D3
:1041B0008C019D01000F111F221F331F0827192793
:1041C0002A273B27B301A201769567955795479516
:1041D00044255525662577254027512762277327D3
:1041E00080829182A282B3824487558766877787CF
:1041F000DB01CA0181709927AA27BB27B095A0953A
:10420000909581959F4FAF4FBF4F80889188A2882E
:10421000B38888229922AA22BB22C824D924EA245E
:10422000FB24C482D582E682F782C488D588E688DA
:10423000F7888C219D21AE21BF21032E3AE0440F47
:10424000551F661F771F3A95D1F7302D402751270C
:104250006227732784279527A627B727808791870A
:10426000A287B3871F910F91FF90EF90DF90CF90BF
:10427000BF90AF909F908F907F906F905F904F9086
:104280000895FC0180819181A281B381BF77892B40
:104290008A2B8B2BC1F584819581A681B781892BCF
:1042A0008A2B8B2B81F580859185A285B385892BFF
:1042B0008A2B8B2B41F584859585A685B785892B1F
:1042C0008A2B8B2B01F584E590E0A0E0B0E08083A1
:1042D0009183A283B38389E490E0A0E0B0E084837B
:1042E0009583A683B7838EE490E0A0E0B0E080875A
:1042F0009187A287B38789E590E0A0E0B0E084874A
:104300009587A687B78708958F929F92AF92BF92A5
:10431000CF92DF92EF92FF920F931F93CF93DF9391
:10432000EC01488359836A837B8388899989AA89A8
:10433000BB898C839D83AE83BF838C899D89AE8925
:10434000BF8988879987AA87BB87888D998DAA8D11
:10435000BB8D8C879D87AE87BF87C12CD12C760102
:10436000C394860103701127000F111F000F111F46
:104370000C0F1D1FF6013197E370FF27EE0FFF1F93
:10438000EE0FFF1FEC0FFD1F80819181A281B38191
:104390009C01AD016EE156954795379527956A9535
:1043A000D1F7282739274A275B2765E679E887E090
:1043B0009CE60E9412224B015C018C0C9D1CAE1CE1
:1043C000BF1CF80180819181A281B3818826992642
:1043D000AA26BB2680829182A282B382FFEFCF1AE7
:1043E000DF0AEF0AFF0A88E0C816D104E104F104ED
:1043F00009F0B7CFCE010E94412108E010E0CE01C4
:104400000E94AE2001501109D1F7DF91CF911F9189
:104410000F91FF90EF90DF90CF90BF90AF909F9063
:104420008F900895DB018F939F930E948922BF9103
:10443000AF91A29F800D911DA39F900DB29F900DF3
:1044400011240895991B79E004C0991F961708F06C
:10445000961B881F7A95C9F78095089597FB072EBC
:1044600016F4009407D077FD09D00E94942207FC2F
:1044700005D03EF4909581959F4F08957095619574
:104480007F4F0895A1E21A2EAA1BBB1BFD010DC090
:10449000AA1FBB1FEE1FFF1FA217B307E407F507F4
:1044A00020F0A21BB30BE40BF50B661F771F881FD0
:1044B000991F1A9469F760957095809590959B0166
:1044C000AC01BD01CF010895052E97FB1EF40094A9
:1044D0000E947B2257FD07D00E94422207FC03D096
:1044E0004EF40C947B2250954095309521953F4F8A
:1044F0004F4F5F4F089590958095709561957F4FD0
:104500008F4F9F4F0895EE0FFF1F0590F491E02D00
:1045100009940E94A822A59F900DB49F900DA49F7E
:10452000800D911D11240895AA1BBB1B51E107C0EA
:10453000AA1FBB1FA617B70710F0A61BB70B881F33
:10454000991F5A95A9F780959095BC01CD010895C2
:10455000A29FB001B39FC001A39F700D811D1124C4
:10456000911DB29F700D811D1124911D0895F9991F
:10457000FECF92BD81BDF89A992780B50895262F68
:10458000F999FECF1FBA92BD81BD20BD0FB6F89438
:0E459000FA9AF99A0FBE01960895F894FFCF9B
:10459E0000C18081000000FFFFFFFF00E10000006E
:1045AE00000000860250021A021A021A02500286F7
:1045BE00021702891083107D1098108F103D11295B
:1045CE001115110111EB10D510BB10A11000000038
:1045DE00001A0E610E440E540E300E410E57415607
:1045EE0045202025640053434F5245202564004347
:1045FE004F4D504C455445210047414D45204F5697
:10460E004552005B47616D65206163743D25785DA1
:10461E00004F4E004F4646005354415254004247FD
:10462E004D20257300534520202573005B536E6487
:08463E002025782025785D009D
:00000001FF
